
program.debug.elf:     file format elf32-littleriscv


Disassembly of section .text:

00000000 <crt>:
   0:	00000013          	addi	x0,x0,0
   4:	00000097          	auipc	x1,0x0
   8:	08c08093          	addi	x1,x1,140 # 90 <exit>
   c:	00010117          	auipc	x2,0x10
  10:	ff410113          	addi	x2,x2,-12 # 10000 <_sp>
  14:	00010413          	addi	x8,x2,0
  18:	00001197          	auipc	x3,0x1
  1c:	f0818193          	addi	x3,x3,-248 # f20 <__global_pointer$>
  20:	00000213          	addi	x4,x0,0
  24:	00000293          	addi	x5,x0,0
  28:	00000313          	addi	x6,x0,0
  2c:	00000393          	addi	x7,x0,0
  30:	00000493          	addi	x9,x0,0
  34:	00000513          	addi	x10,x0,0
  38:	00000593          	addi	x11,x0,0
  3c:	00000613          	addi	x12,x0,0
  40:	00000693          	addi	x13,x0,0
  44:	00000713          	addi	x14,x0,0
  48:	00000793          	addi	x15,x0,0
  4c:	00000813          	addi	x16,x0,0
  50:	00000893          	addi	x17,x0,0
  54:	00000913          	addi	x18,x0,0
  58:	00000993          	addi	x19,x0,0
  5c:	00000a13          	addi	x20,x0,0
  60:	00000a93          	addi	x21,x0,0
  64:	00000b13          	addi	x22,x0,0
  68:	00000b93          	addi	x23,x0,0
  6c:	00000c13          	addi	x24,x0,0
  70:	00000c93          	addi	x25,x0,0
  74:	00000d13          	addi	x26,x0,0
  78:	00000d93          	addi	x27,x0,0
  7c:	00000e13          	addi	x28,x0,0
  80:	00000e93          	addi	x29,x0,0
  84:	00000f13          	addi	x30,x0,0
  88:	00000f93          	addi	x31,x0,0
  8c:	08c0006f          	jal	x0,118 <main>

00000090 <exit>:
  90:	00010117          	auipc	x2,0x10
  94:	f7010113          	addi	x2,x2,-144 # 10000 <_sp>
  98:	fea12c23          	sw	x10,-8(x2)
  9c:	00000013          	addi	x0,x0,0
  a0:	10500073          	wfi
  a4:	00000013          	addi	x0,x0,0
  a8:	00000013          	addi	x0,x0,0
  ac:	00000013          	addi	x0,x0,0

000000b0 <little_endian>:
  b0:	fe010113          	addi	x2,x2,-32
  b4:	00812e23          	sw	x8,28(x2)
  b8:	02010413          	addi	x8,x2,32
  bc:	fea42623          	sw	x10,-20(x8)
  c0:	fec42783          	lw	x15,-20(x8)
  c4:	0007c783          	lbu	x15,0(x15)
  c8:	00078713          	addi	x14,x15,0
  cc:	fec42783          	lw	x15,-20(x8)
  d0:	00178793          	addi	x15,x15,1
  d4:	0007c783          	lbu	x15,0(x15)
  d8:	00879793          	slli	x15,x15,0x8
  dc:	00f76733          	or	x14,x14,x15
  e0:	fec42783          	lw	x15,-20(x8)
  e4:	00278793          	addi	x15,x15,2
  e8:	0007c783          	lbu	x15,0(x15)
  ec:	01079793          	slli	x15,x15,0x10
  f0:	00f76733          	or	x14,x14,x15
  f4:	fec42783          	lw	x15,-20(x8)
  f8:	00378793          	addi	x15,x15,3
  fc:	0007c783          	lbu	x15,0(x15)
 100:	01879793          	slli	x15,x15,0x18
 104:	00f767b3          	or	x15,x14,x15
 108:	00078513          	addi	x10,x15,0
 10c:	01c12403          	lw	x8,28(x2)
 110:	02010113          	addi	x2,x2,32
 114:	00008067          	jalr	x0,0(x1)

00000118 <main>:
 118:	fa010113          	addi	x2,x2,-96
 11c:	04112e23          	sw	x1,92(x2)
 120:	04812c23          	sw	x8,88(x2)
 124:	06010413          	addi	x8,x2,96
 128:	000007b7          	lui	x15,0x0
 12c:	75078793          	addi	x15,x15,1872 # 750 <round_key+0xb0>
 130:	0007a603          	lw	x12,0(x15)
 134:	0047a683          	lw	x13,4(x15)
 138:	0087a703          	lw	x14,8(x15)
 13c:	00c7a783          	lw	x15,12(x15)
 140:	fac42c23          	sw	x12,-72(x8)
 144:	fad42e23          	sw	x13,-68(x8)
 148:	fce42023          	sw	x14,-64(x8)
 14c:	fcf42223          	sw	x15,-60(x8)
 150:	fc042e23          	sw	x0,-36(x8)
 154:	fb840793          	addi	x15,x8,-72
 158:	00078513          	addi	x10,x15,0
 15c:	00000097          	auipc	x1,0x0
 160:	f54080e7          	jalr	x1,-172(x1) # b0 <little_endian>
 164:	fea42623          	sw	x10,-20(x8)
 168:	fb840793          	addi	x15,x8,-72
 16c:	00478793          	addi	x15,x15,4
 170:	00078513          	addi	x10,x15,0
 174:	00000097          	auipc	x1,0x0
 178:	f3c080e7          	jalr	x1,-196(x1) # b0 <little_endian>
 17c:	fea42423          	sw	x10,-24(x8)
 180:	fb840793          	addi	x15,x8,-72
 184:	00878793          	addi	x15,x15,8
 188:	00078513          	addi	x10,x15,0
 18c:	00000097          	auipc	x1,0x0
 190:	f24080e7          	jalr	x1,-220(x1) # b0 <little_endian>
 194:	fea42223          	sw	x10,-28(x8)
 198:	fb840793          	addi	x15,x8,-72
 19c:	00c78793          	addi	x15,x15,12
 1a0:	00078513          	addi	x10,x15,0
 1a4:	00000097          	auipc	x1,0x0
 1a8:	f0c080e7          	jalr	x1,-244(x1) # b0 <little_endian>
 1ac:	fea42023          	sw	x10,-32(x8)
 1b0:	fdc42783          	lw	x15,-36(x8)
 1b4:	00279713          	slli	x14,x15,0x2
 1b8:	000007b7          	lui	x15,0x0
 1bc:	6a078793          	addi	x15,x15,1696 # 6a0 <round_key>
 1c0:	00f707b3          	add	x15,x14,x15
 1c4:	00078513          	addi	x10,x15,0
 1c8:	00000097          	auipc	x1,0x0
 1cc:	ee8080e7          	jalr	x1,-280(x1) # b0 <little_endian>
 1d0:	00050713          	addi	x14,x10,0
 1d4:	fec42783          	lw	x15,-20(x8)
 1d8:	00e7c7b3          	xor	x15,x15,x14
 1dc:	fef42623          	sw	x15,-20(x8)
 1e0:	fdc42783          	lw	x15,-36(x8)
 1e4:	00178793          	addi	x15,x15,1
 1e8:	00279713          	slli	x14,x15,0x2
 1ec:	000007b7          	lui	x15,0x0
 1f0:	6a078793          	addi	x15,x15,1696 # 6a0 <round_key>
 1f4:	00f707b3          	add	x15,x14,x15
 1f8:	00078513          	addi	x10,x15,0
 1fc:	00000097          	auipc	x1,0x0
 200:	eb4080e7          	jalr	x1,-332(x1) # b0 <little_endian>
 204:	00050713          	addi	x14,x10,0
 208:	fe842783          	lw	x15,-24(x8)
 20c:	00e7c7b3          	xor	x15,x15,x14
 210:	fef42423          	sw	x15,-24(x8)
 214:	fdc42783          	lw	x15,-36(x8)
 218:	00278793          	addi	x15,x15,2
 21c:	00279713          	slli	x14,x15,0x2
 220:	000007b7          	lui	x15,0x0
 224:	6a078793          	addi	x15,x15,1696 # 6a0 <round_key>
 228:	00f707b3          	add	x15,x14,x15
 22c:	00078513          	addi	x10,x15,0
 230:	00000097          	auipc	x1,0x0
 234:	e80080e7          	jalr	x1,-384(x1) # b0 <little_endian>
 238:	00050713          	addi	x14,x10,0
 23c:	fe442783          	lw	x15,-28(x8)
 240:	00e7c7b3          	xor	x15,x15,x14
 244:	fef42223          	sw	x15,-28(x8)
 248:	fdc42783          	lw	x15,-36(x8)
 24c:	00378793          	addi	x15,x15,3
 250:	00279713          	slli	x14,x15,0x2
 254:	000007b7          	lui	x15,0x0
 258:	6a078793          	addi	x15,x15,1696 # 6a0 <round_key>
 25c:	00f707b3          	add	x15,x14,x15
 260:	00078513          	addi	x10,x15,0
 264:	00000097          	auipc	x1,0x0
 268:	e4c080e7          	jalr	x1,-436(x1) # b0 <little_endian>
 26c:	00050713          	addi	x14,x10,0
 270:	fe042783          	lw	x15,-32(x8)
 274:	00e7c7b3          	xor	x15,x15,x14
 278:	fef42023          	sw	x15,-32(x8)
 27c:	fdc42783          	lw	x15,-36(x8)
 280:	00478793          	addi	x15,x15,4
 284:	fcf42e23          	sw	x15,-36(x8)
 288:	fc042c23          	sw	x0,-40(x8)
 28c:	1d80006f          	jal	x0,464 <main+0x34c>
 290:	fdc42783          	lw	x15,-36(x8)
 294:	00279713          	slli	x14,x15,0x2
 298:	000007b7          	lui	x15,0x0
 29c:	6a078793          	addi	x15,x15,1696 # 6a0 <round_key>
 2a0:	00f707b3          	add	x15,x14,x15
 2a4:	00078513          	addi	x10,x15,0
 2a8:	00000097          	auipc	x1,0x0
 2ac:	e08080e7          	jalr	x1,-504(x1) # b0 <little_endian>
 2b0:	fca42a23          	sw	x10,-44(x8)
 2b4:	fdc42783          	lw	x15,-36(x8)
 2b8:	00178793          	addi	x15,x15,1
 2bc:	00279713          	slli	x14,x15,0x2
 2c0:	000007b7          	lui	x15,0x0
 2c4:	6a078793          	addi	x15,x15,1696 # 6a0 <round_key>
 2c8:	00f707b3          	add	x15,x14,x15
 2cc:	00078513          	addi	x10,x15,0
 2d0:	00000097          	auipc	x1,0x0
 2d4:	de0080e7          	jalr	x1,-544(x1) # b0 <little_endian>
 2d8:	fca42823          	sw	x10,-48(x8)
 2dc:	fdc42783          	lw	x15,-36(x8)
 2e0:	00278793          	addi	x15,x15,2
 2e4:	00279713          	slli	x14,x15,0x2
 2e8:	000007b7          	lui	x15,0x0
 2ec:	6a078793          	addi	x15,x15,1696 # 6a0 <round_key>
 2f0:	00f707b3          	add	x15,x14,x15
 2f4:	00078513          	addi	x10,x15,0
 2f8:	00000097          	auipc	x1,0x0
 2fc:	db8080e7          	jalr	x1,-584(x1) # b0 <little_endian>
 300:	fca42623          	sw	x10,-52(x8)
 304:	fdc42783          	lw	x15,-36(x8)
 308:	00378793          	addi	x15,x15,3
 30c:	00279713          	slli	x14,x15,0x2
 310:	000007b7          	lui	x15,0x0
 314:	6a078793          	addi	x15,x15,1696 # 6a0 <round_key>
 318:	00f707b3          	add	x15,x14,x15
 31c:	00078513          	addi	x10,x15,0
 320:	00000097          	auipc	x1,0x0
 324:	d90080e7          	jalr	x1,-624(x1) # b0 <little_endian>
 328:	fca42423          	sw	x10,-56(x8)
 32c:	fd442783          	lw	x15,-44(x8)
 330:	fec42703          	lw	x14,-20(x8)
 334:	00e7e7a7          	0xe7e7a7
 338:	fcf42a23          	sw	x15,-44(x8)
 33c:	fd442783          	lw	x15,-44(x8)
 340:	fe842703          	lw	x14,-24(x8)
 344:	00e7e7a3          	0xe7e7a3
 348:	fcf42a23          	sw	x15,-44(x8)
 34c:	fd442783          	lw	x15,-44(x8)
 350:	fe442703          	lw	x14,-28(x8)
 354:	00e7e7ab          	0xe7e7ab
 358:	fcf42a23          	sw	x15,-44(x8)
 35c:	fd442783          	lw	x15,-44(x8)
 360:	fe042703          	lw	x14,-32(x8)
 364:	00e7e7af          	0xe7e7af
 368:	fcf42a23          	sw	x15,-44(x8)
 36c:	fd042783          	lw	x15,-48(x8)
 370:	fe842703          	lw	x14,-24(x8)
 374:	00e7e7a7          	0xe7e7a7
 378:	fcf42823          	sw	x15,-48(x8)
 37c:	fd042783          	lw	x15,-48(x8)
 380:	fe442703          	lw	x14,-28(x8)
 384:	00e7e7a3          	0xe7e7a3
 388:	fcf42823          	sw	x15,-48(x8)
 38c:	fd042783          	lw	x15,-48(x8)
 390:	fe042703          	lw	x14,-32(x8)
 394:	00e7e7ab          	0xe7e7ab
 398:	fcf42823          	sw	x15,-48(x8)
 39c:	fd042783          	lw	x15,-48(x8)
 3a0:	fec42703          	lw	x14,-20(x8)
 3a4:	00e7e7af          	0xe7e7af
 3a8:	fcf42823          	sw	x15,-48(x8)
 3ac:	fcc42783          	lw	x15,-52(x8)
 3b0:	fe442703          	lw	x14,-28(x8)
 3b4:	00e7e7a7          	0xe7e7a7
 3b8:	fcf42623          	sw	x15,-52(x8)
 3bc:	fcc42783          	lw	x15,-52(x8)
 3c0:	fe042703          	lw	x14,-32(x8)
 3c4:	00e7e7a3          	0xe7e7a3
 3c8:	fcf42623          	sw	x15,-52(x8)
 3cc:	fcc42783          	lw	x15,-52(x8)
 3d0:	fec42703          	lw	x14,-20(x8)
 3d4:	00e7e7ab          	0xe7e7ab
 3d8:	fcf42623          	sw	x15,-52(x8)
 3dc:	fcc42783          	lw	x15,-52(x8)
 3e0:	fe842703          	lw	x14,-24(x8)
 3e4:	00e7e7af          	0xe7e7af
 3e8:	fcf42623          	sw	x15,-52(x8)
 3ec:	fc842783          	lw	x15,-56(x8)
 3f0:	fe042703          	lw	x14,-32(x8)
 3f4:	00e7e7a7          	0xe7e7a7
 3f8:	fcf42423          	sw	x15,-56(x8)
 3fc:	fc842783          	lw	x15,-56(x8)
 400:	fec42703          	lw	x14,-20(x8)
 404:	00e7e7a3          	0xe7e7a3
 408:	fcf42423          	sw	x15,-56(x8)
 40c:	fc842783          	lw	x15,-56(x8)
 410:	fe842703          	lw	x14,-24(x8)
 414:	00e7e7ab          	0xe7e7ab
 418:	fcf42423          	sw	x15,-56(x8)
 41c:	fc842783          	lw	x15,-56(x8)
 420:	fe442703          	lw	x14,-28(x8)
 424:	00e7e7af          	0xe7e7af
 428:	fcf42423          	sw	x15,-56(x8)
 42c:	fd442783          	lw	x15,-44(x8)
 430:	fef42623          	sw	x15,-20(x8)
 434:	fd042783          	lw	x15,-48(x8)
 438:	fef42423          	sw	x15,-24(x8)
 43c:	fcc42783          	lw	x15,-52(x8)
 440:	fef42223          	sw	x15,-28(x8)
 444:	fc842783          	lw	x15,-56(x8)
 448:	fef42023          	sw	x15,-32(x8)
 44c:	fdc42783          	lw	x15,-36(x8)
 450:	00478793          	addi	x15,x15,4
 454:	fcf42e23          	sw	x15,-36(x8)
 458:	fd842783          	lw	x15,-40(x8)
 45c:	00178793          	addi	x15,x15,1
 460:	fcf42c23          	sw	x15,-40(x8)
 464:	fd842703          	lw	x14,-40(x8)
 468:	00800793          	addi	x15,x0,8
 46c:	e2e7d2e3          	bge	x15,x14,290 <main+0x178>
 470:	fdc42783          	lw	x15,-36(x8)
 474:	00279713          	slli	x14,x15,0x2
 478:	000007b7          	lui	x15,0x0
 47c:	6a078793          	addi	x15,x15,1696 # 6a0 <round_key>
 480:	00f707b3          	add	x15,x14,x15
 484:	00078513          	addi	x10,x15,0
 488:	00000097          	auipc	x1,0x0
 48c:	c28080e7          	jalr	x1,-984(x1) # b0 <little_endian>
 490:	fca42a23          	sw	x10,-44(x8)
 494:	fdc42783          	lw	x15,-36(x8)
 498:	00178793          	addi	x15,x15,1
 49c:	00279713          	slli	x14,x15,0x2
 4a0:	000007b7          	lui	x15,0x0
 4a4:	6a078793          	addi	x15,x15,1696 # 6a0 <round_key>
 4a8:	00f707b3          	add	x15,x14,x15
 4ac:	00078513          	addi	x10,x15,0
 4b0:	00000097          	auipc	x1,0x0
 4b4:	c00080e7          	jalr	x1,-1024(x1) # b0 <little_endian>
 4b8:	fca42823          	sw	x10,-48(x8)
 4bc:	fdc42783          	lw	x15,-36(x8)
 4c0:	00278793          	addi	x15,x15,2
 4c4:	00279713          	slli	x14,x15,0x2
 4c8:	000007b7          	lui	x15,0x0
 4cc:	6a078793          	addi	x15,x15,1696 # 6a0 <round_key>
 4d0:	00f707b3          	add	x15,x14,x15
 4d4:	00078513          	addi	x10,x15,0
 4d8:	00000097          	auipc	x1,0x0
 4dc:	bd8080e7          	jalr	x1,-1064(x1) # b0 <little_endian>
 4e0:	fca42623          	sw	x10,-52(x8)
 4e4:	fdc42783          	lw	x15,-36(x8)
 4e8:	00378793          	addi	x15,x15,3
 4ec:	00279713          	slli	x14,x15,0x2
 4f0:	000007b7          	lui	x15,0x0
 4f4:	6a078793          	addi	x15,x15,1696 # 6a0 <round_key>
 4f8:	00f707b3          	add	x15,x14,x15
 4fc:	00078513          	addi	x10,x15,0
 500:	00000097          	auipc	x1,0x0
 504:	bb0080e7          	jalr	x1,-1104(x1) # b0 <little_endian>
 508:	fca42423          	sw	x10,-56(x8)
 50c:	fd442783          	lw	x15,-44(x8)
 510:	fec42703          	lw	x14,-20(x8)
 514:	00e7e787          	0xe7e787
 518:	fcf42a23          	sw	x15,-44(x8)
 51c:	fd442783          	lw	x15,-44(x8)
 520:	fe842703          	lw	x14,-24(x8)
 524:	00e7e783          	0xe7e783
 528:	fcf42a23          	sw	x15,-44(x8)
 52c:	fd442783          	lw	x15,-44(x8)
 530:	fe442703          	lw	x14,-28(x8)
 534:	00e7e78b          	0xe7e78b
 538:	fcf42a23          	sw	x15,-44(x8)
 53c:	fd442783          	lw	x15,-44(x8)
 540:	fe042703          	lw	x14,-32(x8)
 544:	00e7e78f          	0xe7e78f
 548:	fcf42a23          	sw	x15,-44(x8)
 54c:	fd042783          	lw	x15,-48(x8)
 550:	fe842703          	lw	x14,-24(x8)
 554:	00e7e787          	0xe7e787
 558:	fcf42823          	sw	x15,-48(x8)
 55c:	fd042783          	lw	x15,-48(x8)
 560:	fe442703          	lw	x14,-28(x8)
 564:	00e7e783          	0xe7e783
 568:	fcf42823          	sw	x15,-48(x8)
 56c:	fd042783          	lw	x15,-48(x8)
 570:	fe042703          	lw	x14,-32(x8)
 574:	00e7e78b          	0xe7e78b
 578:	fcf42823          	sw	x15,-48(x8)
 57c:	fd042783          	lw	x15,-48(x8)
 580:	fec42703          	lw	x14,-20(x8)
 584:	00e7e78f          	0xe7e78f
 588:	fcf42823          	sw	x15,-48(x8)
 58c:	fcc42783          	lw	x15,-52(x8)
 590:	fe442703          	lw	x14,-28(x8)
 594:	00e7e787          	0xe7e787
 598:	fcf42623          	sw	x15,-52(x8)
 59c:	fcc42783          	lw	x15,-52(x8)
 5a0:	fe042703          	lw	x14,-32(x8)
 5a4:	00e7e783          	0xe7e783
 5a8:	fcf42623          	sw	x15,-52(x8)
 5ac:	fcc42783          	lw	x15,-52(x8)
 5b0:	fec42703          	lw	x14,-20(x8)
 5b4:	00e7e78b          	0xe7e78b
 5b8:	fcf42623          	sw	x15,-52(x8)
 5bc:	fcc42783          	lw	x15,-52(x8)
 5c0:	fe842703          	lw	x14,-24(x8)
 5c4:	00e7e78f          	0xe7e78f
 5c8:	fcf42623          	sw	x15,-52(x8)
 5cc:	fc842783          	lw	x15,-56(x8)
 5d0:	fe042703          	lw	x14,-32(x8)
 5d4:	00e7e787          	0xe7e787
 5d8:	fcf42423          	sw	x15,-56(x8)
 5dc:	fc842783          	lw	x15,-56(x8)
 5e0:	fec42703          	lw	x14,-20(x8)
 5e4:	00e7e783          	0xe7e783
 5e8:	fcf42423          	sw	x15,-56(x8)
 5ec:	fc842783          	lw	x15,-56(x8)
 5f0:	fe842703          	lw	x14,-24(x8)
 5f4:	00e7e78b          	0xe7e78b
 5f8:	fcf42423          	sw	x15,-56(x8)
 5fc:	fc842783          	lw	x15,-56(x8)
 600:	fe442703          	lw	x14,-28(x8)
 604:	00e7e78f          	0xe7e78f
 608:	fcf42423          	sw	x15,-56(x8)
 60c:	fd442783          	lw	x15,-44(x8)
 610:	faf42423          	sw	x15,-88(x8)
 614:	fd042783          	lw	x15,-48(x8)
 618:	faf42623          	sw	x15,-84(x8)
 61c:	fcc42783          	lw	x15,-52(x8)
 620:	faf42823          	sw	x15,-80(x8)
 624:	fc842783          	lw	x15,-56(x8)
 628:	faf42a23          	sw	x15,-76(x8)
 62c:	00000793          	addi	x15,x0,0
 630:	00078513          	addi	x10,x15,0
 634:	05c12083          	lw	x1,92(x2)
 638:	05812403          	lw	x8,88(x2)
 63c:	06010113          	addi	x2,x2,96
 640:	00008067          	jalr	x0,0(x1)
	...

Disassembly of section .rodata:

000006a0 <round_key>:
	...
 6b0:	62636363          	bltu	x6,x6,cd6 <_ebss+0x576>
 6b4:	62636363          	bltu	x6,x6,cda <_ebss+0x57a>
 6b8:	62636363          	bltu	x6,x6,cde <_ebss+0x57e>
 6bc:	62636363          	bltu	x6,x6,ce2 <_ebss+0x582>
 6c0:	98c9                	c.andi	x9,-14
 6c2:	9b98                	0x9b98
 6c4:	fbaa                	c.fswsp	f10,244(x2)
 6c6:	98c9f9fb          	0x98c9f9fb
 6ca:	9b98                	0x9b98
 6cc:	fbaa                	c.fswsp	f10,244(x2)
 6ce:	3450f9fb          	0x3450f9fb
 6d2:	cffa9097          	auipc	x1,0xcffa9
 6d6:	696c                	c.flw	f11,84(x10)
 6d8:	f2f45733          	0xf2f45733
 6dc:	ac99                	c.j	932 <_ebss+0x1d2>
 6de:	da7b0b0f          	0xda7b0b0f
 6e2:	ee06                	c.fswsp	f1,28(x2)
 6e4:	1581                	c.addi	x11,-32
 6e6:	876a                	c.mv	x14,x26
 6e8:	42b2                	c.lwsp	x5,12(x2)
 6ea:	759e                	c.flwsp	f11,228(x2)
 6ec:	7e91ee2b          	0x7e91ee2b
 6f0:	2b88                	c.fld	f10,16(x15)
 6f2:	7f2e                	c.flwsp	f30,232(x2)
 6f4:	3e09                	c.jal	206 <main+0xee>
 6f6:	f844                	c.fsw	f9,52(x8)
 6f8:	8dda7cbb          	0x8dda7cbb
 6fc:	9290                	0x9290
 6fe:	4b85f34b          	fnmsub.d	f6,f11,f24,f9
 702:	ec61                	c.bnez	x8,7da <_ebss+0x7a>
 704:	758c                	c.flw	f11,40(x11)
 706:	1425                	c.addi	x8,-23
 708:	99ff0937          	lui	x18,0x99ff0
 70c:	6ab49ba7          	0x6ab49ba7
 710:	21751787          	0x21751787
 714:	3550620b          	0x3550620b
 718:	6b3c                	c.flw	f15,80(x14)
 71a:	f09bacaf          	0xf09bacaf
 71e:	0333c61b          	0x333c61b
 722:	0ef9                	c.addi	x29,30
 724:	6138                	c.flw	f14,64(x10)
 726:	3ba9                	c.jal	480 <main+0x368>
 728:	0a04                	c.addi4spn	x9,x2,272
 72a:	9706                	c.add	x14,x1
 72c:	fa9f 511d d8e2      	0xd8e2511dfa9f
 732:	b1d4                	c.fsd	f13,160(x11)
 734:	b9da                	c.fsdsp	f22,240(x2)
 736:	8a7d                	c.andi	x12,31
 738:	b3de                	c.fsdsp	f23,480(x2)
 73a:	49411d7b          	0x49411d7b
 73e:	4c66                	c.lwsp	x24,88(x2)
 740:	b4ef5bcb          	0xb4ef5bcb
 744:	e211                	c.bnez	x12,748 <round_key+0xa8>
 746:	3e92                	c.fldsp	f29,288(x2)
 748:	23e951cf          	fnmadd.d	f3,f18,f30,f4,unknown
 74c:	188e                	c.slli	x17,0x23
 74e:	22336f8f          	0x22336f8f
 752:	0011                	c.addi	x0,4
 754:	44556677          	0x44556677
 758:	8899aabb          	0x8899aabb
 75c:	eeff                	0xeeff
 75e:	ccdd                	c.beqz	x9,81c <_ebss+0xbc>

