
program.debug.elf:     file format elf32-littleriscv


Disassembly of section .text:

00000000 <crt>:
   0:	00000013          	addi	zero,zero,0
   4:	00000097          	auipc	ra,0x0
   8:	08c08093          	addi	ra,ra,140 # 90 <exit>
   c:	00010117          	auipc	sp,0x10
  10:	ff410113          	addi	sp,sp,-12 # 10000 <_sp>
  14:	00010413          	addi	s0,sp,0
  18:	00001197          	auipc	gp,0x1
  1c:	f0818193          	addi	gp,gp,-248 # f20 <__global_pointer$>
  20:	00000213          	addi	tp,zero,0
  24:	00000293          	addi	t0,zero,0
  28:	00000313          	addi	t1,zero,0
  2c:	00000393          	addi	t2,zero,0
  30:	00000493          	addi	s1,zero,0
  34:	00000513          	addi	a0,zero,0
  38:	00000593          	addi	a1,zero,0
  3c:	00000613          	addi	a2,zero,0
  40:	00000693          	addi	a3,zero,0
  44:	00000713          	addi	a4,zero,0
  48:	00000793          	addi	a5,zero,0
  4c:	00000813          	addi	a6,zero,0
  50:	00000893          	addi	a7,zero,0
  54:	00000913          	addi	s2,zero,0
  58:	00000993          	addi	s3,zero,0
  5c:	00000a13          	addi	s4,zero,0
  60:	00000a93          	addi	s5,zero,0
  64:	00000b13          	addi	s6,zero,0
  68:	00000b93          	addi	s7,zero,0
  6c:	00000c13          	addi	s8,zero,0
  70:	00000c93          	addi	s9,zero,0
  74:	00000d13          	addi	s10,zero,0
  78:	00000d93          	addi	s11,zero,0
  7c:	00000e13          	addi	t3,zero,0
  80:	00000e93          	addi	t4,zero,0
  84:	00000f13          	addi	t5,zero,0
  88:	00000f93          	addi	t6,zero,0
  8c:	08c0006f          	jal	zero,118 <main>

00000090 <exit>:
  90:	00010117          	auipc	sp,0x10
  94:	f7010113          	addi	sp,sp,-144 # 10000 <_sp>
  98:	fea12c23          	sw	a0,-8(sp)
  9c:	00000013          	addi	zero,zero,0
  a0:	10500073          	wfi
  a4:	00000013          	addi	zero,zero,0
  a8:	00000013          	addi	zero,zero,0
  ac:	00000013          	addi	zero,zero,0

000000b0 <little_endian>:
  b0:	fe010113          	addi	sp,sp,-32
  b4:	00812e23          	sw	s0,28(sp)
  b8:	02010413          	addi	s0,sp,32
  bc:	fea42623          	sw	a0,-20(s0)
  c0:	fec42783          	lw	a5,-20(s0)
  c4:	0007c783          	lbu	a5,0(a5)
  c8:	00078713          	addi	a4,a5,0
  cc:	fec42783          	lw	a5,-20(s0)
  d0:	00178793          	addi	a5,a5,1
  d4:	0007c783          	lbu	a5,0(a5)
  d8:	00879793          	slli	a5,a5,0x8
  dc:	00f76733          	or	a4,a4,a5
  e0:	fec42783          	lw	a5,-20(s0)
  e4:	00278793          	addi	a5,a5,2
  e8:	0007c783          	lbu	a5,0(a5)
  ec:	01079793          	slli	a5,a5,0x10
  f0:	00f76733          	or	a4,a4,a5
  f4:	fec42783          	lw	a5,-20(s0)
  f8:	00378793          	addi	a5,a5,3
  fc:	0007c783          	lbu	a5,0(a5)
 100:	01879793          	slli	a5,a5,0x18
 104:	00f767b3          	or	a5,a4,a5
 108:	00078513          	addi	a0,a5,0
 10c:	01c12403          	lw	s0,28(sp)
 110:	02010113          	addi	sp,sp,32
 114:	00008067          	jalr	zero,0(ra)

00000118 <main>:
 118:	fa010113          	addi	sp,sp,-96
 11c:	04112e23          	sw	ra,92(sp)
 120:	04812c23          	sw	s0,88(sp)
 124:	06010413          	addi	s0,sp,96
 128:	000007b7          	lui	a5,0x0
 12c:	75078793          	addi	a5,a5,1872 # 750 <round_key+0xb0>
 130:	0007a603          	lw	a2,0(a5)
 134:	0047a683          	lw	a3,4(a5)
 138:	0087a703          	lw	a4,8(a5)
 13c:	00c7a783          	lw	a5,12(a5)
 140:	fac42c23          	sw	a2,-72(s0)
 144:	fad42e23          	sw	a3,-68(s0)
 148:	fce42023          	sw	a4,-64(s0)
 14c:	fcf42223          	sw	a5,-60(s0)
 150:	fc042e23          	sw	zero,-36(s0)
 154:	fb840793          	addi	a5,s0,-72
 158:	00078513          	addi	a0,a5,0
 15c:	00000097          	auipc	ra,0x0
 160:	f54080e7          	jalr	ra,-172(ra) # b0 <little_endian>
 164:	fea42623          	sw	a0,-20(s0)
 168:	fb840793          	addi	a5,s0,-72
 16c:	00478793          	addi	a5,a5,4
 170:	00078513          	addi	a0,a5,0
 174:	00000097          	auipc	ra,0x0
 178:	f3c080e7          	jalr	ra,-196(ra) # b0 <little_endian>
 17c:	fea42423          	sw	a0,-24(s0)
 180:	fb840793          	addi	a5,s0,-72
 184:	00878793          	addi	a5,a5,8
 188:	00078513          	addi	a0,a5,0
 18c:	00000097          	auipc	ra,0x0
 190:	f24080e7          	jalr	ra,-220(ra) # b0 <little_endian>
 194:	fea42223          	sw	a0,-28(s0)
 198:	fb840793          	addi	a5,s0,-72
 19c:	00c78793          	addi	a5,a5,12
 1a0:	00078513          	addi	a0,a5,0
 1a4:	00000097          	auipc	ra,0x0
 1a8:	f0c080e7          	jalr	ra,-244(ra) # b0 <little_endian>
 1ac:	fea42023          	sw	a0,-32(s0)
 1b0:	fdc42783          	lw	a5,-36(s0)
 1b4:	00279713          	slli	a4,a5,0x2
 1b8:	000007b7          	lui	a5,0x0
 1bc:	6a078793          	addi	a5,a5,1696 # 6a0 <round_key>
 1c0:	00f707b3          	add	a5,a4,a5
 1c4:	00078513          	addi	a0,a5,0
 1c8:	00000097          	auipc	ra,0x0
 1cc:	ee8080e7          	jalr	ra,-280(ra) # b0 <little_endian>
 1d0:	00050713          	addi	a4,a0,0
 1d4:	fec42783          	lw	a5,-20(s0)
 1d8:	00e7c7b3          	xor	a5,a5,a4
 1dc:	fef42623          	sw	a5,-20(s0)
 1e0:	fdc42783          	lw	a5,-36(s0)
 1e4:	00178793          	addi	a5,a5,1
 1e8:	00279713          	slli	a4,a5,0x2
 1ec:	000007b7          	lui	a5,0x0
 1f0:	6a078793          	addi	a5,a5,1696 # 6a0 <round_key>
 1f4:	00f707b3          	add	a5,a4,a5
 1f8:	00078513          	addi	a0,a5,0
 1fc:	00000097          	auipc	ra,0x0
 200:	eb4080e7          	jalr	ra,-332(ra) # b0 <little_endian>
 204:	00050713          	addi	a4,a0,0
 208:	fe842783          	lw	a5,-24(s0)
 20c:	00e7c7b3          	xor	a5,a5,a4
 210:	fef42423          	sw	a5,-24(s0)
 214:	fdc42783          	lw	a5,-36(s0)
 218:	00278793          	addi	a5,a5,2
 21c:	00279713          	slli	a4,a5,0x2
 220:	000007b7          	lui	a5,0x0
 224:	6a078793          	addi	a5,a5,1696 # 6a0 <round_key>
 228:	00f707b3          	add	a5,a4,a5
 22c:	00078513          	addi	a0,a5,0
 230:	00000097          	auipc	ra,0x0
 234:	e80080e7          	jalr	ra,-384(ra) # b0 <little_endian>
 238:	00050713          	addi	a4,a0,0
 23c:	fe442783          	lw	a5,-28(s0)
 240:	00e7c7b3          	xor	a5,a5,a4
 244:	fef42223          	sw	a5,-28(s0)
 248:	fdc42783          	lw	a5,-36(s0)
 24c:	00378793          	addi	a5,a5,3
 250:	00279713          	slli	a4,a5,0x2
 254:	000007b7          	lui	a5,0x0
 258:	6a078793          	addi	a5,a5,1696 # 6a0 <round_key>
 25c:	00f707b3          	add	a5,a4,a5
 260:	00078513          	addi	a0,a5,0
 264:	00000097          	auipc	ra,0x0
 268:	e4c080e7          	jalr	ra,-436(ra) # b0 <little_endian>
 26c:	00050713          	addi	a4,a0,0
 270:	fe042783          	lw	a5,-32(s0)
 274:	00e7c7b3          	xor	a5,a5,a4
 278:	fef42023          	sw	a5,-32(s0)
 27c:	fdc42783          	lw	a5,-36(s0)
 280:	00478793          	addi	a5,a5,4
 284:	fcf42e23          	sw	a5,-36(s0)
 288:	fc042c23          	sw	zero,-40(s0)
 28c:	1d80006f          	jal	zero,464 <main+0x34c>
 290:	fdc42783          	lw	a5,-36(s0)
 294:	00279713          	slli	a4,a5,0x2
 298:	000007b7          	lui	a5,0x0
 29c:	6a078793          	addi	a5,a5,1696 # 6a0 <round_key>
 2a0:	00f707b3          	add	a5,a4,a5
 2a4:	00078513          	addi	a0,a5,0
 2a8:	00000097          	auipc	ra,0x0
 2ac:	e08080e7          	jalr	ra,-504(ra) # b0 <little_endian>
 2b0:	fca42a23          	sw	a0,-44(s0)
 2b4:	fdc42783          	lw	a5,-36(s0)
 2b8:	00178793          	addi	a5,a5,1
 2bc:	00279713          	slli	a4,a5,0x2
 2c0:	000007b7          	lui	a5,0x0
 2c4:	6a078793          	addi	a5,a5,1696 # 6a0 <round_key>
 2c8:	00f707b3          	add	a5,a4,a5
 2cc:	00078513          	addi	a0,a5,0
 2d0:	00000097          	auipc	ra,0x0
 2d4:	de0080e7          	jalr	ra,-544(ra) # b0 <little_endian>
 2d8:	fca42823          	sw	a0,-48(s0)
 2dc:	fdc42783          	lw	a5,-36(s0)
 2e0:	00278793          	addi	a5,a5,2
 2e4:	00279713          	slli	a4,a5,0x2
 2e8:	000007b7          	lui	a5,0x0
 2ec:	6a078793          	addi	a5,a5,1696 # 6a0 <round_key>
 2f0:	00f707b3          	add	a5,a4,a5
 2f4:	00078513          	addi	a0,a5,0
 2f8:	00000097          	auipc	ra,0x0
 2fc:	db8080e7          	jalr	ra,-584(ra) # b0 <little_endian>
 300:	fca42623          	sw	a0,-52(s0)
 304:	fdc42783          	lw	a5,-36(s0)
 308:	00378793          	addi	a5,a5,3
 30c:	00279713          	slli	a4,a5,0x2
 310:	000007b7          	lui	a5,0x0
 314:	6a078793          	addi	a5,a5,1696 # 6a0 <round_key>
 318:	00f707b3          	add	a5,a4,a5
 31c:	00078513          	addi	a0,a5,0
 320:	00000097          	auipc	ra,0x0
 324:	d90080e7          	jalr	ra,-624(ra) # b0 <little_endian>
 328:	fca42423          	sw	a0,-56(s0)
 32c:	fd442783          	lw	a5,-44(s0)
 330:	fec42703          	lw	a4,-20(s0)
 334:	00e7e7a7          	0xe7e7a7
 338:	fcf42a23          	sw	a5,-44(s0)
 33c:	fd442783          	lw	a5,-44(s0)
 340:	fe842703          	lw	a4,-24(s0)
 344:	00e7e7a3          	0xe7e7a3
 348:	fcf42a23          	sw	a5,-44(s0)
 34c:	fd442783          	lw	a5,-44(s0)
 350:	fe442703          	lw	a4,-28(s0)
 354:	00e7e7ab          	0xe7e7ab
 358:	fcf42a23          	sw	a5,-44(s0)
 35c:	fd442783          	lw	a5,-44(s0)
 360:	fe042703          	lw	a4,-32(s0)
 364:	00e7e7af          	0xe7e7af
 368:	fcf42a23          	sw	a5,-44(s0)
 36c:	fd042783          	lw	a5,-48(s0)
 370:	fe842703          	lw	a4,-24(s0)
 374:	00e7e7a7          	0xe7e7a7
 378:	fcf42823          	sw	a5,-48(s0)
 37c:	fd042783          	lw	a5,-48(s0)
 380:	fe442703          	lw	a4,-28(s0)
 384:	00e7e7a3          	0xe7e7a3
 388:	fcf42823          	sw	a5,-48(s0)
 38c:	fd042783          	lw	a5,-48(s0)
 390:	fe042703          	lw	a4,-32(s0)
 394:	00e7e7ab          	0xe7e7ab
 398:	fcf42823          	sw	a5,-48(s0)
 39c:	fd042783          	lw	a5,-48(s0)
 3a0:	fec42703          	lw	a4,-20(s0)
 3a4:	00e7e7af          	0xe7e7af
 3a8:	fcf42823          	sw	a5,-48(s0)
 3ac:	fcc42783          	lw	a5,-52(s0)
 3b0:	fe442703          	lw	a4,-28(s0)
 3b4:	00e7e7a7          	0xe7e7a7
 3b8:	fcf42623          	sw	a5,-52(s0)
 3bc:	fcc42783          	lw	a5,-52(s0)
 3c0:	fe042703          	lw	a4,-32(s0)
 3c4:	00e7e7a3          	0xe7e7a3
 3c8:	fcf42623          	sw	a5,-52(s0)
 3cc:	fcc42783          	lw	a5,-52(s0)
 3d0:	fec42703          	lw	a4,-20(s0)
 3d4:	00e7e7ab          	0xe7e7ab
 3d8:	fcf42623          	sw	a5,-52(s0)
 3dc:	fcc42783          	lw	a5,-52(s0)
 3e0:	fe842703          	lw	a4,-24(s0)
 3e4:	00e7e7af          	0xe7e7af
 3e8:	fcf42623          	sw	a5,-52(s0)
 3ec:	fc842783          	lw	a5,-56(s0)
 3f0:	fe042703          	lw	a4,-32(s0)
 3f4:	00e7e7a7          	0xe7e7a7
 3f8:	fcf42423          	sw	a5,-56(s0)
 3fc:	fc842783          	lw	a5,-56(s0)
 400:	fec42703          	lw	a4,-20(s0)
 404:	00e7e7a3          	0xe7e7a3
 408:	fcf42423          	sw	a5,-56(s0)
 40c:	fc842783          	lw	a5,-56(s0)
 410:	fe842703          	lw	a4,-24(s0)
 414:	00e7e7ab          	0xe7e7ab
 418:	fcf42423          	sw	a5,-56(s0)
 41c:	fc842783          	lw	a5,-56(s0)
 420:	fe442703          	lw	a4,-28(s0)
 424:	00e7e7af          	0xe7e7af
 428:	fcf42423          	sw	a5,-56(s0)
 42c:	fd442783          	lw	a5,-44(s0)
 430:	fef42623          	sw	a5,-20(s0)
 434:	fd042783          	lw	a5,-48(s0)
 438:	fef42423          	sw	a5,-24(s0)
 43c:	fcc42783          	lw	a5,-52(s0)
 440:	fef42223          	sw	a5,-28(s0)
 444:	fc842783          	lw	a5,-56(s0)
 448:	fef42023          	sw	a5,-32(s0)
 44c:	fdc42783          	lw	a5,-36(s0)
 450:	00478793          	addi	a5,a5,4
 454:	fcf42e23          	sw	a5,-36(s0)
 458:	fd842783          	lw	a5,-40(s0)
 45c:	00178793          	addi	a5,a5,1
 460:	fcf42c23          	sw	a5,-40(s0)
 464:	fd842703          	lw	a4,-40(s0)
 468:	00800793          	addi	a5,zero,8
 46c:	e2e7d2e3          	bge	a5,a4,290 <main+0x178>
 470:	fdc42783          	lw	a5,-36(s0)
 474:	00279713          	slli	a4,a5,0x2
 478:	000007b7          	lui	a5,0x0
 47c:	6a078793          	addi	a5,a5,1696 # 6a0 <round_key>
 480:	00f707b3          	add	a5,a4,a5
 484:	00078513          	addi	a0,a5,0
 488:	00000097          	auipc	ra,0x0
 48c:	c28080e7          	jalr	ra,-984(ra) # b0 <little_endian>
 490:	fca42a23          	sw	a0,-44(s0)
 494:	fdc42783          	lw	a5,-36(s0)
 498:	00178793          	addi	a5,a5,1
 49c:	00279713          	slli	a4,a5,0x2
 4a0:	000007b7          	lui	a5,0x0
 4a4:	6a078793          	addi	a5,a5,1696 # 6a0 <round_key>
 4a8:	00f707b3          	add	a5,a4,a5
 4ac:	00078513          	addi	a0,a5,0
 4b0:	00000097          	auipc	ra,0x0
 4b4:	c00080e7          	jalr	ra,-1024(ra) # b0 <little_endian>
 4b8:	fca42823          	sw	a0,-48(s0)
 4bc:	fdc42783          	lw	a5,-36(s0)
 4c0:	00278793          	addi	a5,a5,2
 4c4:	00279713          	slli	a4,a5,0x2
 4c8:	000007b7          	lui	a5,0x0
 4cc:	6a078793          	addi	a5,a5,1696 # 6a0 <round_key>
 4d0:	00f707b3          	add	a5,a4,a5
 4d4:	00078513          	addi	a0,a5,0
 4d8:	00000097          	auipc	ra,0x0
 4dc:	bd8080e7          	jalr	ra,-1064(ra) # b0 <little_endian>
 4e0:	fca42623          	sw	a0,-52(s0)
 4e4:	fdc42783          	lw	a5,-36(s0)
 4e8:	00378793          	addi	a5,a5,3
 4ec:	00279713          	slli	a4,a5,0x2
 4f0:	000007b7          	lui	a5,0x0
 4f4:	6a078793          	addi	a5,a5,1696 # 6a0 <round_key>
 4f8:	00f707b3          	add	a5,a4,a5
 4fc:	00078513          	addi	a0,a5,0
 500:	00000097          	auipc	ra,0x0
 504:	bb0080e7          	jalr	ra,-1104(ra) # b0 <little_endian>
 508:	fca42423          	sw	a0,-56(s0)
 50c:	fd442783          	lw	a5,-44(s0)
 510:	fec42703          	lw	a4,-20(s0)
 514:	00e7e787          	0xe7e787
 518:	fcf42a23          	sw	a5,-44(s0)
 51c:	fd442783          	lw	a5,-44(s0)
 520:	fe842703          	lw	a4,-24(s0)
 524:	00e7e783          	0xe7e783
 528:	fcf42a23          	sw	a5,-44(s0)
 52c:	fd442783          	lw	a5,-44(s0)
 530:	fe442703          	lw	a4,-28(s0)
 534:	00e7e78b          	0xe7e78b
 538:	fcf42a23          	sw	a5,-44(s0)
 53c:	fd442783          	lw	a5,-44(s0)
 540:	fe042703          	lw	a4,-32(s0)
 544:	00e7e78f          	0xe7e78f
 548:	fcf42a23          	sw	a5,-44(s0)
 54c:	fd042783          	lw	a5,-48(s0)
 550:	fe842703          	lw	a4,-24(s0)
 554:	00e7e787          	0xe7e787
 558:	fcf42823          	sw	a5,-48(s0)
 55c:	fd042783          	lw	a5,-48(s0)
 560:	fe442703          	lw	a4,-28(s0)
 564:	00e7e783          	0xe7e783
 568:	fcf42823          	sw	a5,-48(s0)
 56c:	fd042783          	lw	a5,-48(s0)
 570:	fe042703          	lw	a4,-32(s0)
 574:	00e7e78b          	0xe7e78b
 578:	fcf42823          	sw	a5,-48(s0)
 57c:	fd042783          	lw	a5,-48(s0)
 580:	fec42703          	lw	a4,-20(s0)
 584:	00e7e78f          	0xe7e78f
 588:	fcf42823          	sw	a5,-48(s0)
 58c:	fcc42783          	lw	a5,-52(s0)
 590:	fe442703          	lw	a4,-28(s0)
 594:	00e7e787          	0xe7e787
 598:	fcf42623          	sw	a5,-52(s0)
 59c:	fcc42783          	lw	a5,-52(s0)
 5a0:	fe042703          	lw	a4,-32(s0)
 5a4:	00e7e783          	0xe7e783
 5a8:	fcf42623          	sw	a5,-52(s0)
 5ac:	fcc42783          	lw	a5,-52(s0)
 5b0:	fec42703          	lw	a4,-20(s0)
 5b4:	00e7e78b          	0xe7e78b
 5b8:	fcf42623          	sw	a5,-52(s0)
 5bc:	fcc42783          	lw	a5,-52(s0)
 5c0:	fe842703          	lw	a4,-24(s0)
 5c4:	00e7e78f          	0xe7e78f
 5c8:	fcf42623          	sw	a5,-52(s0)
 5cc:	fc842783          	lw	a5,-56(s0)
 5d0:	fe042703          	lw	a4,-32(s0)
 5d4:	00e7e787          	0xe7e787
 5d8:	fcf42423          	sw	a5,-56(s0)
 5dc:	fc842783          	lw	a5,-56(s0)
 5e0:	fec42703          	lw	a4,-20(s0)
 5e4:	00e7e783          	0xe7e783
 5e8:	fcf42423          	sw	a5,-56(s0)
 5ec:	fc842783          	lw	a5,-56(s0)
 5f0:	fe842703          	lw	a4,-24(s0)
 5f4:	00e7e78b          	0xe7e78b
 5f8:	fcf42423          	sw	a5,-56(s0)
 5fc:	fc842783          	lw	a5,-56(s0)
 600:	fe442703          	lw	a4,-28(s0)
 604:	00e7e78f          	0xe7e78f
 608:	fcf42423          	sw	a5,-56(s0)
 60c:	fd442783          	lw	a5,-44(s0)
 610:	faf42423          	sw	a5,-88(s0)
 614:	fd042783          	lw	a5,-48(s0)
 618:	faf42623          	sw	a5,-84(s0)
 61c:	fcc42783          	lw	a5,-52(s0)
 620:	faf42823          	sw	a5,-80(s0)
 624:	fc842783          	lw	a5,-56(s0)
 628:	faf42a23          	sw	a5,-76(s0)
 62c:	00000793          	addi	a5,zero,0
 630:	00078513          	addi	a0,a5,0
 634:	05c12083          	lw	ra,92(sp)
 638:	05812403          	lw	s0,88(sp)
 63c:	06010113          	addi	sp,sp,96
 640:	00008067          	jalr	zero,0(ra)
	...

Disassembly of section .rodata:

000006a0 <round_key>:
	...
 6b0:	62636363          	bltu	t1,t1,cd6 <_ebss+0x576>
 6b4:	62636363          	bltu	t1,t1,cda <_ebss+0x57a>
 6b8:	62636363          	bltu	t1,t1,cde <_ebss+0x57e>
 6bc:	62636363          	bltu	t1,t1,ce2 <_ebss+0x582>
 6c0:	98c9                	c.andi	s1,-14
 6c2:	9b98                	0x9b98
 6c4:	fbaa                	c.fswsp	fa0,244(sp)
 6c6:	98c9f9fb          	0x98c9f9fb
 6ca:	9b98                	0x9b98
 6cc:	fbaa                	c.fswsp	fa0,244(sp)
 6ce:	3450f9fb          	0x3450f9fb
 6d2:	cffa9097          	auipc	ra,0xcffa9
 6d6:	696c                	c.flw	fa1,84(a0)
 6d8:	f2f45733          	0xf2f45733
 6dc:	ac99                	c.j	932 <_ebss+0x1d2>
 6de:	da7b0b0f          	0xda7b0b0f
 6e2:	ee06                	c.fswsp	ft1,28(sp)
 6e4:	1581                	c.addi	a1,-32
 6e6:	876a                	c.mv	a4,s10
 6e8:	42b2                	c.lwsp	t0,12(sp)
 6ea:	759e                	c.flwsp	fa1,228(sp)
 6ec:	7e91ee2b          	0x7e91ee2b
 6f0:	2b88                	c.fld	fa0,16(a5)
 6f2:	7f2e                	c.flwsp	ft10,232(sp)
 6f4:	3e09                	c.jal	206 <main+0xee>
 6f6:	f844                	c.fsw	fs1,52(s0)
 6f8:	8dda7cbb          	0x8dda7cbb
 6fc:	9290                	0x9290
 6fe:	4b85f34b          	fnmsub.d	ft6,fa1,fs8,fs1
 702:	ec61                	c.bnez	s0,7da <_ebss+0x7a>
 704:	758c                	c.flw	fa1,40(a1)
 706:	1425                	c.addi	s0,-23
 708:	99ff0937          	lui	s2,0x99ff0
 70c:	6ab49ba7          	0x6ab49ba7
 710:	21751787          	0x21751787
 714:	3550620b          	0x3550620b
 718:	6b3c                	c.flw	fa5,80(a4)
 71a:	f09bacaf          	0xf09bacaf
 71e:	0333c61b          	0x333c61b
 722:	0ef9                	c.addi	t4,30
 724:	6138                	c.flw	fa4,64(a0)
 726:	3ba9                	c.jal	480 <main+0x368>
 728:	0a04                	c.addi4spn	s1,sp,272
 72a:	9706                	c.add	a4,ra
 72c:	fa9f 511d d8e2      	0xd8e2511dfa9f
 732:	b1d4                	c.fsd	fa3,160(a1)
 734:	b9da                	c.fsdsp	fs6,240(sp)
 736:	8a7d                	c.andi	a2,31
 738:	b3de                	c.fsdsp	fs7,480(sp)
 73a:	49411d7b          	0x49411d7b
 73e:	4c66                	c.lwsp	s8,88(sp)
 740:	b4ef5bcb          	0xb4ef5bcb
 744:	e211                	c.bnez	a2,748 <round_key+0xa8>
 746:	3e92                	c.fldsp	ft9,288(sp)
 748:	23e951cf          	fnmadd.d	ft3,fs2,ft10,ft4,unknown
 74c:	188e                	c.slli	a7,0x23
 74e:	22336f8f          	0x22336f8f
 752:	0011                	c.addi	zero,4
 754:	44556677          	0x44556677
 758:	8899aabb          	0x8899aabb
 75c:	eeff                	0xeeff
 75e:	ccdd                	c.beqz	s1,81c <_ebss+0xbc>

