
program.debug.elf:     file format elf32-littleriscv


Disassembly of section .text:

00000000 <crt>:

.global crt
.section .text.prologue, "ax"
.align 4
crt:
	nop
   0:	00000013          	addi	x0,x0,0
	la ra, exit
   4:	00000097          	auipc	x1,0x0
   8:	08c08093          	addi	x1,x1,140 # 90 <exit>
	la sp, _sp
   c:	00010117          	auipc	x2,0x10
  10:	ff410113          	addi	x2,x2,-12 # 10000 <_sp>
	mv s0, sp
  14:	00010413          	addi	x8,x2,0
	la gp, __global_pointer$
  18:	00001197          	auipc	x3,0x1
  1c:	0e818193          	addi	x3,x3,232 # 1100 <__global_pointer$>
	li tp, 0
  20:	00000213          	addi	x4,x0,0
	li t0, 0
  24:	00000293          	addi	x5,x0,0
	li t1, 0
  28:	00000313          	addi	x6,x0,0
	li t2, 0
  2c:	00000393          	addi	x7,x0,0
	li s1, 0
  30:	00000493          	addi	x9,x0,0
	li a0, 0
  34:	00000513          	addi	x10,x0,0
	li a1, 0
  38:	00000593          	addi	x11,x0,0
	li a2, 0
  3c:	00000613          	addi	x12,x0,0
	li a3, 0
  40:	00000693          	addi	x13,x0,0
	li a4, 0
  44:	00000713          	addi	x14,x0,0
	li a5, 0
  48:	00000793          	addi	x15,x0,0
	li a6, 0
  4c:	00000813          	addi	x16,x0,0
	li a7, 0
  50:	00000893          	addi	x17,x0,0
	li s2, 0
  54:	00000913          	addi	x18,x0,0
	li s3, 0
  58:	00000993          	addi	x19,x0,0
	li s4, 0
  5c:	00000a13          	addi	x20,x0,0
	li s5, 0
  60:	00000a93          	addi	x21,x0,0
	li s6, 0
  64:	00000b13          	addi	x22,x0,0
	li s7, 0
  68:	00000b93          	addi	x23,x0,0
	li s8, 0
  6c:	00000c13          	addi	x24,x0,0
	li s9, 0
  70:	00000c93          	addi	x25,x0,0
	li s10, 0
  74:	00000d13          	addi	x26,x0,0
	li s11, 0
  78:	00000d93          	addi	x27,x0,0
	li t3, 0
  7c:	00000e13          	addi	x28,x0,0
	li t4, 0
  80:	00000e93          	addi	x29,x0,0
	li t5, 0
  84:	00000f13          	addi	x30,x0,0
	li t6, 0
  88:	00000f93          	addi	x31,x0,0
	j main
  8c:	4ec0006f          	jal	x0,578 <main>

00000090 <exit>:

.global exit
.section .text
.align 4
exit:
	la sp, _sp
  90:	00010117          	auipc	x2,0x10
  94:	f7010113          	addi	x2,x2,-144 # 10000 <_sp>
	sw a0, -8(sp)
  98:	fea12c23          	sw	x10,-8(x2)
	nop
  9c:	00000013          	addi	x0,x0,0
	wfi
  a0:	10500073          	wfi
  a4:	00000013          	addi	x0,x0,0
  a8:	00000013          	addi	x0,x0,0
  ac:	00000013          	addi	x0,x0,0

000000b0 <multiply>:
//     0x13111d7f, 0xe3944a17, 0xf307a78b, 0x4d2b30c5,
// };

const uint32_t mds[4] = {0x02030101, 0x01020301, 0x01010203, 0x03010102};

uint8_t multiply(uint8_t x, uint8_t mds) {
  b0:	fe010113          	addi	x2,x2,-32
  b4:	00812e23          	sw	x8,28(x2)
  b8:	02010413          	addi	x8,x2,32
  bc:	00050793          	addi	x15,x10,0
  c0:	00058713          	addi	x14,x11,0
  c4:	fef407a3          	sb	x15,-17(x8)
  c8:	00070793          	addi	x15,x14,0
  cc:	fef40723          	sb	x15,-18(x8)
    if(mds == 1) {
  d0:	fee44703          	lbu	x14,-18(x8)
  d4:	00100793          	addi	x15,x0,1
  d8:	00f71663          	bne	x14,x15,e4 <multiply+0x34>
        return x;
  dc:	fef44783          	lbu	x15,-17(x8)
  e0:	08c0006f          	jal	x0,16c <multiply+0xbc>
    } else if(mds == 2) {
  e4:	fee44703          	lbu	x14,-18(x8)
  e8:	00200793          	addi	x15,x0,2
  ec:	02f71e63          	bne	x14,x15,128 <multiply+0x78>
        return (x << 1) ^ ((x & 0x80) ? 0x11B : 0x00);
  f0:	fef44783          	lbu	x15,-17(x8)
  f4:	00179793          	slli	x15,x15,0x1
  f8:	01879713          	slli	x14,x15,0x18
  fc:	41875713          	srai	x14,x14,0x18
 100:	fef40783          	lb	x15,-17(x8)
 104:	0007d663          	bge	x15,x0,110 <multiply+0x60>
 108:	01b00793          	addi	x15,x0,27
 10c:	0080006f          	jal	x0,114 <multiply+0x64>
 110:	00000793          	addi	x15,x0,0
 114:	00e7c7b3          	xor	x15,x15,x14
 118:	01879793          	slli	x15,x15,0x18
 11c:	4187d793          	srai	x15,x15,0x18
 120:	0ff7f793          	andi	x15,x15,255
 124:	0480006f          	jal	x0,16c <multiply+0xbc>
    } else {
        return x ^ ((x << 1) ^ ((x & 0x80) ? 0x11B : 0x00));
 128:	fef44783          	lbu	x15,-17(x8)
 12c:	00179793          	slli	x15,x15,0x1
 130:	01879713          	slli	x14,x15,0x18
 134:	41875713          	srai	x14,x14,0x18
 138:	fef40783          	lb	x15,-17(x8)
 13c:	0007d663          	bge	x15,x0,148 <multiply+0x98>
 140:	01b00793          	addi	x15,x0,27
 144:	0080006f          	jal	x0,14c <multiply+0x9c>
 148:	00000793          	addi	x15,x0,0
 14c:	00e7c7b3          	xor	x15,x15,x14
 150:	01879713          	slli	x14,x15,0x18
 154:	41875713          	srai	x14,x14,0x18
 158:	fef40783          	lb	x15,-17(x8)
 15c:	00f747b3          	xor	x15,x14,x15
 160:	01879793          	slli	x15,x15,0x18
 164:	4187d793          	srai	x15,x15,0x18
 168:	0ff7f793          	andi	x15,x15,255
    }
}
 16c:	00078513          	addi	x10,x15,0
 170:	01c12403          	lw	x8,28(x2)
 174:	02010113          	addi	x2,x2,32
 178:	00008067          	jalr	x0,0(x1)

0000017c <add_round_key>:

void add_round_key(uint32_t* state, const uint32_t* key) {
 17c:	fd010113          	addi	x2,x2,-48
 180:	02812623          	sw	x8,44(x2)
 184:	03010413          	addi	x8,x2,48
 188:	fca42e23          	sw	x10,-36(x8)
 18c:	fcb42c23          	sw	x11,-40(x8)
    for(int i = 0; i < 4; i++) {
 190:	fe042623          	sw	x0,-20(x8)
 194:	0500006f          	jal	x0,1e4 <add_round_key+0x68>
        state[i] ^= key[i];
 198:	fec42783          	lw	x15,-20(x8)
 19c:	00279793          	slli	x15,x15,0x2
 1a0:	fdc42703          	lw	x14,-36(x8)
 1a4:	00f707b3          	add	x15,x14,x15
 1a8:	0007a683          	lw	x13,0(x15)
 1ac:	fec42783          	lw	x15,-20(x8)
 1b0:	00279793          	slli	x15,x15,0x2
 1b4:	fd842703          	lw	x14,-40(x8)
 1b8:	00f707b3          	add	x15,x14,x15
 1bc:	0007a703          	lw	x14,0(x15)
 1c0:	fec42783          	lw	x15,-20(x8)
 1c4:	00279793          	slli	x15,x15,0x2
 1c8:	fdc42603          	lw	x12,-36(x8)
 1cc:	00f607b3          	add	x15,x12,x15
 1d0:	00e6c733          	xor	x14,x13,x14
 1d4:	00e7a023          	sw	x14,0(x15)
    for(int i = 0; i < 4; i++) {
 1d8:	fec42783          	lw	x15,-20(x8)
 1dc:	00178793          	addi	x15,x15,1
 1e0:	fef42623          	sw	x15,-20(x8)
 1e4:	fec42703          	lw	x14,-20(x8)
 1e8:	00300793          	addi	x15,x0,3
 1ec:	fae7d6e3          	bge	x15,x14,198 <add_round_key+0x1c>
    #ifdef DEBUG
    for(int i = 0; i < 4; i++) {
        printf("add round key: %04x\n", state[i]);
    }
    #endif
}
 1f0:	00000013          	addi	x0,x0,0
 1f4:	00000013          	addi	x0,x0,0
 1f8:	02c12403          	lw	x8,44(x2)
 1fc:	03010113          	addi	x2,x2,48
 200:	00008067          	jalr	x0,0(x1)

00000204 <sub_byte>:

void sub_byte(uint32_t* state) {
 204:	fd010113          	addi	x2,x2,-48
 208:	02812623          	sw	x8,44(x2)
 20c:	03010413          	addi	x8,x2,48
 210:	fca42e23          	sw	x10,-36(x8)
    for(int i = 0; i < 4; i++) {
 214:	fe042623          	sw	x0,-20(x8)
 218:	07c0006f          	jal	x0,294 <sub_byte+0x90>
        for(int j = 0; j < 4; j++) {
 21c:	fe042423          	sw	x0,-24(x8)
 220:	05c0006f          	jal	x0,27c <sub_byte+0x78>
            *((uint8_t*)(state+i) + j) = aes_sbox[*((uint8_t*)(state+i) + j)];
 224:	fec42783          	lw	x15,-20(x8)
 228:	00279713          	slli	x14,x15,0x2
 22c:	fe842783          	lw	x15,-24(x8)
 230:	00f707b3          	add	x15,x14,x15
 234:	fdc42703          	lw	x14,-36(x8)
 238:	00f707b3          	add	x15,x14,x15
 23c:	0007c783          	lbu	x15,0(x15)
 240:	00078693          	addi	x13,x15,0
 244:	fec42783          	lw	x15,-20(x8)
 248:	00279713          	slli	x14,x15,0x2
 24c:	fe842783          	lw	x15,-24(x8)
 250:	00f707b3          	add	x15,x14,x15
 254:	fdc42703          	lw	x14,-36(x8)
 258:	00f707b3          	add	x15,x14,x15
 25c:	00000737          	lui	x14,0x0
 260:	76070713          	addi	x14,x14,1888 # 760 <aes_sbox>
 264:	00d70733          	add	x14,x14,x13
 268:	00074703          	lbu	x14,0(x14)
 26c:	00e78023          	sb	x14,0(x15)
        for(int j = 0; j < 4; j++) {
 270:	fe842783          	lw	x15,-24(x8)
 274:	00178793          	addi	x15,x15,1
 278:	fef42423          	sw	x15,-24(x8)
 27c:	fe842703          	lw	x14,-24(x8)
 280:	00300793          	addi	x15,x0,3
 284:	fae7d0e3          	bge	x15,x14,224 <sub_byte+0x20>
    for(int i = 0; i < 4; i++) {
 288:	fec42783          	lw	x15,-20(x8)
 28c:	00178793          	addi	x15,x15,1
 290:	fef42623          	sw	x15,-20(x8)
 294:	fec42703          	lw	x14,-20(x8)
 298:	00300793          	addi	x15,x0,3
 29c:	f8e7d0e3          	bge	x15,x14,21c <sub_byte+0x18>
        }
        #ifdef DEBUG
        printf("sub byte: %04x\n", state[i]);
        #endif
    }
}
 2a0:	00000013          	addi	x0,x0,0
 2a4:	00000013          	addi	x0,x0,0
 2a8:	02c12403          	lw	x8,44(x2)
 2ac:	03010113          	addi	x2,x2,48
 2b0:	00008067          	jalr	x0,0(x1)

000002b4 <shift_row>:

void shift_row(uint32_t* state) {
 2b4:	fc010113          	addi	x2,x2,-64
 2b8:	02812e23          	sw	x8,60(x2)
 2bc:	04010413          	addi	x8,x2,64
 2c0:	fca42623          	sw	x10,-52(x8)
    uint32_t tmp_state[4];
    for(int i = 0; i < 4; i++) {
 2c4:	fe042623          	sw	x0,-20(x8)
 2c8:	0880006f          	jal	x0,350 <shift_row+0x9c>
        for(int j = 0; j < 4; j++) {
 2cc:	fe042423          	sw	x0,-24(x8)
 2d0:	0680006f          	jal	x0,338 <shift_row+0x84>
            *((uint8_t*)(tmp_state+i) + j) = *((uint8_t*)(state+(i+3-j)%4) + j);
 2d4:	fec42783          	lw	x15,-20(x8)
 2d8:	00378713          	addi	x14,x15,3
 2dc:	fe842783          	lw	x15,-24(x8)
 2e0:	40f70733          	sub	x14,x14,x15
 2e4:	41f75793          	srai	x15,x14,0x1f
 2e8:	01e7d793          	srli	x15,x15,0x1e
 2ec:	00f70733          	add	x14,x14,x15
 2f0:	00377713          	andi	x14,x14,3
 2f4:	40f707b3          	sub	x15,x14,x15
 2f8:	00279713          	slli	x14,x15,0x2
 2fc:	fe842783          	lw	x15,-24(x8)
 300:	00f707b3          	add	x15,x14,x15
 304:	fcc42703          	lw	x14,-52(x8)
 308:	00f70733          	add	x14,x14,x15
 30c:	fec42783          	lw	x15,-20(x8)
 310:	00279693          	slli	x13,x15,0x2
 314:	fe842783          	lw	x15,-24(x8)
 318:	00f687b3          	add	x15,x13,x15
 31c:	fd040693          	addi	x13,x8,-48
 320:	00f687b3          	add	x15,x13,x15
 324:	00074703          	lbu	x14,0(x14)
 328:	00e78023          	sb	x14,0(x15)
        for(int j = 0; j < 4; j++) {
 32c:	fe842783          	lw	x15,-24(x8)
 330:	00178793          	addi	x15,x15,1
 334:	fef42423          	sw	x15,-24(x8)
 338:	fe842703          	lw	x14,-24(x8)
 33c:	00300793          	addi	x15,x0,3
 340:	f8e7dae3          	bge	x15,x14,2d4 <shift_row+0x20>
    for(int i = 0; i < 4; i++) {
 344:	fec42783          	lw	x15,-20(x8)
 348:	00178793          	addi	x15,x15,1
 34c:	fef42623          	sw	x15,-20(x8)
 350:	fec42703          	lw	x14,-20(x8)
 354:	00300793          	addi	x15,x0,3
 358:	f6e7dae3          	bge	x15,x14,2cc <shift_row+0x18>
        }
    }
    
    for(int i = 0; i < 4; i++) {
 35c:	fe042223          	sw	x0,-28(x8)
 360:	0680006f          	jal	x0,3c8 <shift_row+0x114>
        for(int j = 0; j < 4; j++) {
 364:	fe042023          	sw	x0,-32(x8)
 368:	0480006f          	jal	x0,3b0 <shift_row+0xfc>
            *((uint8_t*)(state+i) + j) = *((uint8_t*)(tmp_state+i) + j);
 36c:	fe442783          	lw	x15,-28(x8)
 370:	00279713          	slli	x14,x15,0x2
 374:	fe042783          	lw	x15,-32(x8)
 378:	00f707b3          	add	x15,x14,x15
 37c:	fd040713          	addi	x14,x8,-48
 380:	00f70733          	add	x14,x14,x15
 384:	fe442783          	lw	x15,-28(x8)
 388:	00279693          	slli	x13,x15,0x2
 38c:	fe042783          	lw	x15,-32(x8)
 390:	00f687b3          	add	x15,x13,x15
 394:	fcc42683          	lw	x13,-52(x8)
 398:	00f687b3          	add	x15,x13,x15
 39c:	00074703          	lbu	x14,0(x14)
 3a0:	00e78023          	sb	x14,0(x15)
        for(int j = 0; j < 4; j++) {
 3a4:	fe042783          	lw	x15,-32(x8)
 3a8:	00178793          	addi	x15,x15,1
 3ac:	fef42023          	sw	x15,-32(x8)
 3b0:	fe042703          	lw	x14,-32(x8)
 3b4:	00300793          	addi	x15,x0,3
 3b8:	fae7dae3          	bge	x15,x14,36c <shift_row+0xb8>
    for(int i = 0; i < 4; i++) {
 3bc:	fe442783          	lw	x15,-28(x8)
 3c0:	00178793          	addi	x15,x15,1
 3c4:	fef42223          	sw	x15,-28(x8)
 3c8:	fe442703          	lw	x14,-28(x8)
 3cc:	00300793          	addi	x15,x0,3
 3d0:	f8e7dae3          	bge	x15,x14,364 <shift_row+0xb0>
    for(int i = 0; i < 4; i++) {
        printf("shift row: %04x\n", state[i]);
    }
    #endif
    
    return;
 3d4:	00000013          	addi	x0,x0,0
}
 3d8:	03c12403          	lw	x8,60(x2)
 3dc:	04010113          	addi	x2,x2,64
 3e0:	00008067          	jalr	x0,0(x1)

000003e4 <mix_column>:

void mix_column(uint32_t* state) {
 3e4:	fb010113          	addi	x2,x2,-80
 3e8:	04112623          	sw	x1,76(x2)
 3ec:	04812423          	sw	x8,72(x2)
 3f0:	05010413          	addi	x8,x2,80
 3f4:	faa42e23          	sw	x10,-68(x8)
    uint32_t tmp_state[4];
    
    for(int i = 0; i < 4; i++) {
 3f8:	fe042623          	sw	x0,-20(x8)
 3fc:	0e40006f          	jal	x0,4e0 <mix_column+0xfc>
        for(int j = 0; j < 4; j++) {
 400:	fe042423          	sw	x0,-24(x8)
 404:	0c40006f          	jal	x0,4c8 <mix_column+0xe4>
            uint32_t res = 0;
 408:	fe042223          	sw	x0,-28(x8)
            for(int k = 0; k < 4; k++) {
 40c:	fe042023          	sw	x0,-32(x8)
 410:	0780006f          	jal	x0,488 <mix_column+0xa4>
                res ^= multiply(*((uint8_t*)(state+i) + 3 - k), *((uint8_t*)(mds+j) + 3 - k));
 414:	fec42783          	lw	x15,-20(x8)
 418:	00279713          	slli	x14,x15,0x2
 41c:	fe042783          	lw	x15,-32(x8)
 420:	40f707b3          	sub	x15,x14,x15
 424:	00378793          	addi	x15,x15,3
 428:	fbc42703          	lw	x14,-68(x8)
 42c:	00f707b3          	add	x15,x14,x15
 430:	0007c683          	lbu	x13,0(x15)
 434:	fe842783          	lw	x15,-24(x8)
 438:	00279713          	slli	x14,x15,0x2
 43c:	fe042783          	lw	x15,-32(x8)
 440:	40f707b3          	sub	x15,x14,x15
 444:	00378713          	addi	x14,x15,3
 448:	000017b7          	lui	x15,0x1
 44c:	91078793          	addi	x15,x15,-1776 # 910 <mds>
 450:	00f707b3          	add	x15,x14,x15
 454:	0007c783          	lbu	x15,0(x15)
 458:	00078593          	addi	x11,x15,0
 45c:	00068513          	addi	x10,x13,0
 460:	00000097          	auipc	x1,0x0
 464:	c50080e7          	jalr	x1,-944(x1) # b0 <multiply>
 468:	00050793          	addi	x15,x10,0
 46c:	00078713          	addi	x14,x15,0
 470:	fe442783          	lw	x15,-28(x8)
 474:	00e7c7b3          	xor	x15,x15,x14
 478:	fef42223          	sw	x15,-28(x8)
            for(int k = 0; k < 4; k++) {
 47c:	fe042783          	lw	x15,-32(x8)
 480:	00178793          	addi	x15,x15,1
 484:	fef42023          	sw	x15,-32(x8)
 488:	fe042703          	lw	x14,-32(x8)
 48c:	00300793          	addi	x15,x0,3
 490:	f8e7d2e3          	bge	x15,x14,414 <mix_column+0x30>
                #ifdef DEBUG
                // printf("(%d, %d) <- (%d, %d, %x) %x %x\n", i, j, i, k, *((uint8_t*)(state+i) + 3 - k), *((uint8_t*)(mds+j) + 3 - k), res);
                #endif
            }
            *((uint8_t*)(tmp_state+i) + 3 - j) = res;
 494:	fec42783          	lw	x15,-20(x8)
 498:	00279713          	slli	x14,x15,0x2
 49c:	fe842783          	lw	x15,-24(x8)
 4a0:	40f707b3          	sub	x15,x14,x15
 4a4:	00378793          	addi	x15,x15,3
 4a8:	fc840713          	addi	x14,x8,-56
 4ac:	00f707b3          	add	x15,x14,x15
 4b0:	fe442703          	lw	x14,-28(x8)
 4b4:	0ff77713          	andi	x14,x14,255
 4b8:	00e78023          	sb	x14,0(x15)
        for(int j = 0; j < 4; j++) {
 4bc:	fe842783          	lw	x15,-24(x8)
 4c0:	00178793          	addi	x15,x15,1
 4c4:	fef42423          	sw	x15,-24(x8)
 4c8:	fe842703          	lw	x14,-24(x8)
 4cc:	00300793          	addi	x15,x0,3
 4d0:	f2e7dce3          	bge	x15,x14,408 <mix_column+0x24>
    for(int i = 0; i < 4; i++) {
 4d4:	fec42783          	lw	x15,-20(x8)
 4d8:	00178793          	addi	x15,x15,1
 4dc:	fef42623          	sw	x15,-20(x8)
 4e0:	fec42703          	lw	x14,-20(x8)
 4e4:	00300793          	addi	x15,x0,3
 4e8:	f0e7dce3          	bge	x15,x14,400 <mix_column+0x1c>
    for(int i = 0; i < 4; i++) {
        printf("mix column: %04x\n", tmp_state[i]);
    }
    #endif
    
    for(int i = 0; i < 4; i++) {
 4ec:	fc042e23          	sw	x0,-36(x8)
 4f0:	0680006f          	jal	x0,558 <mix_column+0x174>
        for(int j = 0; j < 4; j++) {
 4f4:	fc042c23          	sw	x0,-40(x8)
 4f8:	0480006f          	jal	x0,540 <mix_column+0x15c>
            *((uint8_t*)(state+i) + j) = *((uint8_t*)(tmp_state+i) + j);
 4fc:	fdc42783          	lw	x15,-36(x8)
 500:	00279713          	slli	x14,x15,0x2
 504:	fd842783          	lw	x15,-40(x8)
 508:	00f707b3          	add	x15,x14,x15
 50c:	fc840713          	addi	x14,x8,-56
 510:	00f70733          	add	x14,x14,x15
 514:	fdc42783          	lw	x15,-36(x8)
 518:	00279693          	slli	x13,x15,0x2
 51c:	fd842783          	lw	x15,-40(x8)
 520:	00f687b3          	add	x15,x13,x15
 524:	fbc42683          	lw	x13,-68(x8)
 528:	00f687b3          	add	x15,x13,x15
 52c:	00074703          	lbu	x14,0(x14)
 530:	00e78023          	sb	x14,0(x15)
        for(int j = 0; j < 4; j++) {
 534:	fd842783          	lw	x15,-40(x8)
 538:	00178793          	addi	x15,x15,1
 53c:	fcf42c23          	sw	x15,-40(x8)
 540:	fd842703          	lw	x14,-40(x8)
 544:	00300793          	addi	x15,x0,3
 548:	fae7dae3          	bge	x15,x14,4fc <mix_column+0x118>
    for(int i = 0; i < 4; i++) {
 54c:	fdc42783          	lw	x15,-36(x8)
 550:	00178793          	addi	x15,x15,1
 554:	fcf42e23          	sw	x15,-36(x8)
 558:	fdc42703          	lw	x14,-36(x8)
 55c:	00300793          	addi	x15,x0,3
 560:	f8e7dae3          	bge	x15,x14,4f4 <mix_column+0x110>
        }
    }
    
    return;    
 564:	00000013          	addi	x0,x0,0
}
 568:	04c12083          	lw	x1,76(x2)
 56c:	04812403          	lw	x8,72(x2)
 570:	05010113          	addi	x2,x2,80
 574:	00008067          	jalr	x0,0(x1)

00000578 <main>:

int main(void) { 
 578:	fc010113          	addi	x2,x2,-64
 57c:	02112e23          	sw	x1,60(x2)
 580:	02812c23          	sw	x8,56(x2)
 584:	04010413          	addi	x8,x2,64

    uint32_t plain_text[4] = {0x76543210, 0x76543210, 0x76543210, 0x76543210};
 588:	000017b7          	lui	x15,0x1
 58c:	92078793          	addi	x15,x15,-1760 # 920 <mds+0x10>
 590:	0007a603          	lw	x12,0(x15)
 594:	0047a683          	lw	x13,4(x15)
 598:	0087a703          	lw	x14,8(x15)
 59c:	00c7a783          	lw	x15,12(x15)
 5a0:	fcc42823          	sw	x12,-48(x8)
 5a4:	fcd42a23          	sw	x13,-44(x8)
 5a8:	fce42c23          	sw	x14,-40(x8)
 5ac:	fcf42e23          	sw	x15,-36(x8)
    const uint32_t* cur_key;
    uint32_t state[4];
    int round = 0;
 5b0:	fe042623          	sw	x0,-20(x8)
    
    /*----------------------Round 0----------------------*/
    // load plain text
    for(int i = 0; i < 4; i++) {
 5b4:	fe042423          	sw	x0,-24(x8)
 5b8:	0380006f          	jal	x0,5f0 <main+0x78>
        state[i] = plain_text[i];
 5bc:	fe842783          	lw	x15,-24(x8)
 5c0:	00279793          	slli	x15,x15,0x2
 5c4:	ff078793          	addi	x15,x15,-16
 5c8:	008787b3          	add	x15,x15,x8
 5cc:	fe07a703          	lw	x14,-32(x15)
 5d0:	fe842783          	lw	x15,-24(x8)
 5d4:	00279793          	slli	x15,x15,0x2
 5d8:	ff078793          	addi	x15,x15,-16
 5dc:	008787b3          	add	x15,x15,x8
 5e0:	fce7a823          	sw	x14,-48(x15)
    for(int i = 0; i < 4; i++) {
 5e4:	fe842783          	lw	x15,-24(x8)
 5e8:	00178793          	addi	x15,x15,1
 5ec:	fef42423          	sw	x15,-24(x8)
 5f0:	fe842703          	lw	x14,-24(x8)
 5f4:	00300793          	addi	x15,x0,3
 5f8:	fce7d2e3          	bge	x15,x14,5bc <main+0x44>
    }
    cur_key = round_key + 4 * round;
 5fc:	fec42783          	lw	x15,-20(x8)
 600:	00479713          	slli	x14,x15,0x4
 604:	000017b7          	lui	x15,0x1
 608:	86078793          	addi	x15,x15,-1952 # 860 <round_key>
 60c:	00f707b3          	add	x15,x14,x15
 610:	fef42023          	sw	x15,-32(x8)
    add_round_key(state, cur_key);
 614:	fc040793          	addi	x15,x8,-64
 618:	fe042583          	lw	x11,-32(x8)
 61c:	00078513          	addi	x10,x15,0
 620:	00000097          	auipc	x1,0x0
 624:	b5c080e7          	jalr	x1,-1188(x1) # 17c <add_round_key>
    round++;
 628:	fec42783          	lw	x15,-20(x8)
 62c:	00178793          	addi	x15,x15,1
 630:	fef42623          	sw	x15,-20(x8)

    /*--------------------Round 1 ~ 9--------------------*/
    for(int i = 0; i < 9; i++) {
 634:	fe042223          	sw	x0,-28(x8)
 638:	0780006f          	jal	x0,6b0 <main+0x138>
        #ifdef DEBUG
        printf("-------Round%d-------\n", i+1);
        #endif
        cur_key = round_key + 4 * round;
 63c:	fec42783          	lw	x15,-20(x8)
 640:	00479713          	slli	x14,x15,0x4
 644:	000017b7          	lui	x15,0x1
 648:	86078793          	addi	x15,x15,-1952 # 860 <round_key>
 64c:	00f707b3          	add	x15,x14,x15
 650:	fef42023          	sw	x15,-32(x8)
        sub_byte(state);
 654:	fc040793          	addi	x15,x8,-64
 658:	00078513          	addi	x10,x15,0
 65c:	00000097          	auipc	x1,0x0
 660:	ba8080e7          	jalr	x1,-1112(x1) # 204 <sub_byte>
        shift_row(state);
 664:	fc040793          	addi	x15,x8,-64
 668:	00078513          	addi	x10,x15,0
 66c:	00000097          	auipc	x1,0x0
 670:	c48080e7          	jalr	x1,-952(x1) # 2b4 <shift_row>
        mix_column(state);
 674:	fc040793          	addi	x15,x8,-64
 678:	00078513          	addi	x10,x15,0
 67c:	00000097          	auipc	x1,0x0
 680:	d68080e7          	jalr	x1,-664(x1) # 3e4 <mix_column>
        add_round_key(state, cur_key);
 684:	fc040793          	addi	x15,x8,-64
 688:	fe042583          	lw	x11,-32(x8)
 68c:	00078513          	addi	x10,x15,0
 690:	00000097          	auipc	x1,0x0
 694:	aec080e7          	jalr	x1,-1300(x1) # 17c <add_round_key>
        round++;
 698:	fec42783          	lw	x15,-20(x8)
 69c:	00178793          	addi	x15,x15,1
 6a0:	fef42623          	sw	x15,-20(x8)
    for(int i = 0; i < 9; i++) {
 6a4:	fe442783          	lw	x15,-28(x8)
 6a8:	00178793          	addi	x15,x15,1
 6ac:	fef42223          	sw	x15,-28(x8)
 6b0:	fe442703          	lw	x14,-28(x8)
 6b4:	00800793          	addi	x15,x0,8
 6b8:	f8e7d2e3          	bge	x15,x14,63c <main+0xc4>
    
    /*--------------------Final round--------------------*/
    #ifdef DEBUG
    printf("-------Final round-------\n");
    #endif
    cur_key = round_key + 4 * round;
 6bc:	fec42783          	lw	x15,-20(x8)
 6c0:	00479713          	slli	x14,x15,0x4
 6c4:	000017b7          	lui	x15,0x1
 6c8:	86078793          	addi	x15,x15,-1952 # 860 <round_key>
 6cc:	00f707b3          	add	x15,x14,x15
 6d0:	fef42023          	sw	x15,-32(x8)
    sub_byte(state);
 6d4:	fc040793          	addi	x15,x8,-64
 6d8:	00078513          	addi	x10,x15,0
 6dc:	00000097          	auipc	x1,0x0
 6e0:	b28080e7          	jalr	x1,-1240(x1) # 204 <sub_byte>
    shift_row(state);
 6e4:	fc040793          	addi	x15,x8,-64
 6e8:	00078513          	addi	x10,x15,0
 6ec:	00000097          	auipc	x1,0x0
 6f0:	bc8080e7          	jalr	x1,-1080(x1) # 2b4 <shift_row>
    add_round_key(state, cur_key);
 6f4:	fc040793          	addi	x15,x8,-64
 6f8:	fe042583          	lw	x11,-32(x8)
 6fc:	00078513          	addi	x10,x15,0
 700:	00000097          	auipc	x1,0x0
 704:	a7c080e7          	jalr	x1,-1412(x1) # 17c <add_round_key>

    return 0;
 708:	00000793          	addi	x15,x0,0

 70c:	00078513          	addi	x10,x15,0
 710:	03c12083          	lw	x1,60(x2)
 714:	03812403          	lw	x8,56(x2)
 718:	04010113          	addi	x2,x2,64
 71c:	00008067          	jalr	x0,0(x1)
	...

Disassembly of section .rodata:

00000760 <aes_sbox>:
const uint8_t aes_sbox[256] = {
 760:	7b777c63          	bgeu	x14,x23,f18 <_ebss+0x5d8>
 764:	6bf2                	.2byte	0x6bf2
 766:	0130c56f          	jal	x10,cf78 <__global_pointer$+0xbe78>
 76a:	d7fe2b67          	.4byte	0xd7fe2b67
 76e:	82ca76ab          	.4byte	0x82ca76ab
 772:	7dc9                	.2byte	0x7dc9
 774:	59fa                	.2byte	0x59fa
 776:	d4adf047          	.4byte	0xd4adf047
 77a:	afa2                	.2byte	0xafa2
 77c:	a49c                	.2byte	0xa49c
 77e:	c072                	.2byte	0xc072
 780:	2693fdb7          	lui	x27,0x2693f
 784:	3f36                	.2byte	0x3f36
 786:	a534ccf7          	.4byte	0xa534ccf7
 78a:	f1e5                	.2byte	0xf1e5
 78c:	d871                	.2byte	0xd871
 78e:	1531                	.2byte	0x1531
 790:	c704                	.2byte	0xc704
 792:	9618c323          	.4byte	0x9618c323
 796:	9a05                	.2byte	0x9a05
 798:	e2801207          	.4byte	0xe2801207
 79c:	75b227eb          	.4byte	0x75b227eb
 7a0:	8309                	.2byte	0x8309
 7a2:	1a2c                	.2byte	0x1a2c
 7a4:	a05a6e1b          	.4byte	0xa05a6e1b
 7a8:	3b52                	.2byte	0x3b52
 7aa:	b3d6                	.2byte	0xb3d6
 7ac:	e329                	.2byte	0xe329
 7ae:	d153842f          	.4byte	0xd153842f
 7b2:	ed00                	.2byte	0xed00
 7b4:	fc20                	.2byte	0xfc20
 7b6:	5bb1                	.2byte	0x5bb1
 7b8:	cb6a                	.2byte	0xcb6a
 7ba:	39be                	.2byte	0x39be
 7bc:	4c4a                	.2byte	0x4c4a
 7be:	cf58                	.2byte	0xcf58
 7c0:	efd0                	.2byte	0xefd0
 7c2:	fbaa                	.2byte	0xfbaa
 7c4:	85334d43          	.4byte	0x85334d43
 7c8:	f945                	.2byte	0xf945
 7ca:	7f02                	.2byte	0x7f02
 7cc:	3c50                	.2byte	0x3c50
 7ce:	a89f a351 8f40      	.byte	0x9f, 0xa8, 0x51, 0xa3, 0x40, 0x8f
 7d4:	9d92                	.2byte	0x9d92
 7d6:	f538                	.2byte	0xf538
 7d8:	b6bc                	.2byte	0xb6bc
 7da:	21da                	.2byte	0x21da
 7dc:	ff10                	.2byte	0xff10
 7de:	0ccdd2f3          	csrrwi	x5,0xcc,27
 7e2:	975fec13          	ori	x24,x31,-1675
 7e6:	1744                	.2byte	0x1744
 7e8:	a7c4                	.2byte	0xa7c4
 7ea:	3d7e                	.2byte	0x3d7e
 7ec:	5d64                	.2byte	0x5d64
 7ee:	7319                	.2byte	0x7319
 7f0:	8160                	.2byte	0x8160
 7f2:	2a22dc4f          	.4byte	0x2a22dc4f
 7f6:	8890                	.2byte	0x8890
 7f8:	ee46                	.2byte	0xee46
 7fa:	14b8                	.2byte	0x14b8
 7fc:	5ede                	.2byte	0x5ede
 7fe:	32e0db0b          	.4byte	0x32e0db0b
 802:	0a3a                	.2byte	0xa3a
 804:	0649                	.2byte	0x649
 806:	5c24                	.2byte	0x5c24
 808:	d3c2                	.2byte	0xd3c2
 80a:	62ac                	.2byte	0x62ac
 80c:	9591                	.2byte	0x9591
 80e:	79e4                	.2byte	0x79e4
 810:	6d37c8e7          	.4byte	0x6d37c8e7
 814:	d58d                	.2byte	0xd58d
 816:	a94e                	.2byte	0xa94e
 818:	566c                	.2byte	0x566c
 81a:	eaf4                	.2byte	0xeaf4
 81c:	7a65                	.2byte	0x7a65
 81e:	08ae                	.2byte	0x8ae
 820:	78ba                	.2byte	0x78ba
 822:	2e25                	.2byte	0x2e25
 824:	a61c                	.2byte	0xa61c
 826:	c6b4                	.2byte	0xc6b4
 828:	dde8                	.2byte	0xdde8
 82a:	1f74                	.2byte	0x1f74
 82c:	8a8bbd4b          	.4byte	0x8a8bbd4b
 830:	3e70                	.2byte	0x3e70
 832:	66b5                	.2byte	0x66b5
 834:	0348                	.2byte	0x348
 836:	0ef6                	.2byte	0xef6
 838:	3561                	.2byte	0x3561
 83a:	c186b957          	.4byte	0xc186b957
 83e:	9e1d                	.2byte	0x9e1d
 840:	f8e1                	.2byte	0xf8e1
 842:	1198                	.2byte	0x1198
 844:	d969                	.2byte	0xd969
 846:	948e                	.2byte	0x948e
 848:	e9871e9b          	.4byte	0xe9871e9b
 84c:	55ce                	.2byte	0x55ce
 84e:	df28                	.2byte	0xdf28
 850:	a18c                	.2byte	0xa18c
 852:	0d89                	.2byte	0xd89
 854:	6842e6bf 0f2d9941 	.8byte	0xf2d99416842e6bf
 85c:	54b0                	.2byte	0x54b0
 85e:	          	.4byte	0x16bb

00000860 <round_key>:
	...
 870:	62636363          	bltu	x6,x6,e96 <_ebss+0x556>
 874:	62636363          	bltu	x6,x6,e9a <_ebss+0x55a>
 878:	62636363          	bltu	x6,x6,e9e <_ebss+0x55e>
 87c:	62636363          	bltu	x6,x6,ea2 <_ebss+0x562>
 880:	98c9                	.2byte	0x98c9
 882:	9b98                	.2byte	0x9b98
 884:	fbaa                	.2byte	0xfbaa
 886:	98c9f9fb          	.4byte	0x98c9f9fb
 88a:	9b98                	.2byte	0x9b98
 88c:	fbaa                	.2byte	0xfbaa
 88e:	3450f9fb          	.4byte	0x3450f9fb
 892:	cffa9097          	auipc	x1,0xcffa9
 896:	696c                	.2byte	0x696c
 898:	f2f45733          	.4byte	0xf2f45733
 89c:	ac99                	.2byte	0xac99
 89e:	da7b0b0f          	.4byte	0xda7b0b0f
 8a2:	ee06                	.2byte	0xee06
 8a4:	1581                	.2byte	0x1581
 8a6:	876a                	.2byte	0x876a
 8a8:	42b2                	.2byte	0x42b2
 8aa:	759e                	.2byte	0x759e
 8ac:	7e91ee2b          	.4byte	0x7e91ee2b
 8b0:	2b88                	.2byte	0x2b88
 8b2:	7f2e                	.2byte	0x7f2e
 8b4:	3e09                	.2byte	0x3e09
 8b6:	f844                	.2byte	0xf844
 8b8:	8dda7cbb          	.4byte	0x8dda7cbb
 8bc:	9290                	.2byte	0x9290
 8be:	4b85f34b          	.4byte	0x4b85f34b
 8c2:	ec61                	.2byte	0xec61
 8c4:	758c                	.2byte	0x758c
 8c6:	1425                	.2byte	0x1425
 8c8:	99ff0937          	lui	x18,0x99ff0
 8cc:	6ab49ba7          	.4byte	0x6ab49ba7
 8d0:	21751787          	.4byte	0x21751787
 8d4:	3550620b          	.4byte	0x3550620b
 8d8:	6b3c                	.2byte	0x6b3c
 8da:	f09bacaf          	.4byte	0xf09bacaf
 8de:	0333c61b          	.4byte	0x333c61b
 8e2:	0ef9                	.2byte	0xef9
 8e4:	6138                	.2byte	0x6138
 8e6:	3ba9                	.2byte	0x3ba9
 8e8:	0a04                	.2byte	0xa04
 8ea:	9706                	.2byte	0x9706
 8ec:	fa9f 511d d8e2      	.byte	0x9f, 0xfa, 0x1d, 0x51, 0xe2, 0xd8
 8f2:	b1d4                	.2byte	0xb1d4
 8f4:	b9da                	.2byte	0xb9da
 8f6:	8a7d                	.2byte	0x8a7d
 8f8:	b3de                	.2byte	0xb3de
 8fa:	49411d7b          	.4byte	0x49411d7b
 8fe:	4c66                	.2byte	0x4c66
 900:	b4ef5bcb          	.4byte	0xb4ef5bcb
 904:	e211                	.2byte	0xe211
 906:	3e92                	.2byte	0x3e92
 908:	23e951cf          	.4byte	0x23e951cf
 90c:	188e                	.2byte	0x188e
 90e:	          	aes_enc_round_3	x31,x2,x16

00000910 <mds>:
const uint32_t mds[4] = {0x02030101, 0x01020301, 0x01010203, 0x03010102};
 910:	0101                	.2byte	0x101
 912:	03010203          	lb	x4,48(x2)
 916:	0102                	.2byte	0x102
 918:	01010203          	lb	x4,16(x2)
 91c:	0102                	.2byte	0x102
 91e:	0301                	.2byte	0x301
 920:	3210                	.2byte	0x3210
 922:	7654                	.2byte	0x7654
 924:	3210                	.2byte	0x3210
 926:	7654                	.2byte	0x7654
 928:	3210                	.2byte	0x3210
 92a:	7654                	.2byte	0x7654
 92c:	3210                	.2byte	0x3210
 92e:	7654                	.2byte	0x7654

