
program.debug.elf:     file format elf32-littleriscv


Disassembly of section .text:

00000000 <crt>:

.global crt
.section .text.prologue, "ax"
.align 4
crt:
	nop
   0:	00000013          	addi	x0,x0,0
	la ra, exit
   4:	00000097          	auipc	x1,0x0
   8:	08c08093          	addi	x1,x1,140 # 90 <exit>
	la sp, _sp
   c:	00010117          	auipc	x2,0x10
  10:	ff410113          	addi	x2,x2,-12 # 10000 <_sp>
	mv s0, sp
  14:	00010413          	addi	x8,x2,0
	la gp, __global_pointer$
  18:	00001197          	auipc	x3,0x1
  1c:	18818193          	addi	x3,x3,392 # 11a0 <__global_pointer$>
	li tp, 0
  20:	00000213          	addi	x4,x0,0
	li t0, 0
  24:	00000293          	addi	x5,x0,0
	li t1, 0
  28:	00000313          	addi	x6,x0,0
	li t2, 0
  2c:	00000393          	addi	x7,x0,0
	li s1, 0
  30:	00000493          	addi	x9,x0,0
	li a0, 0
  34:	00000513          	addi	x10,x0,0
	li a1, 0
  38:	00000593          	addi	x11,x0,0
	li a2, 0
  3c:	00000613          	addi	x12,x0,0
	li a3, 0
  40:	00000693          	addi	x13,x0,0
	li a4, 0
  44:	00000713          	addi	x14,x0,0
	li a5, 0
  48:	00000793          	addi	x15,x0,0
	li a6, 0
  4c:	00000813          	addi	x16,x0,0
	li a7, 0
  50:	00000893          	addi	x17,x0,0
	li s2, 0
  54:	00000913          	addi	x18,x0,0
	li s3, 0
  58:	00000993          	addi	x19,x0,0
	li s4, 0
  5c:	00000a13          	addi	x20,x0,0
	li s5, 0
  60:	00000a93          	addi	x21,x0,0
	li s6, 0
  64:	00000b13          	addi	x22,x0,0
	li s7, 0
  68:	00000b93          	addi	x23,x0,0
	li s8, 0
  6c:	00000c13          	addi	x24,x0,0
	li s9, 0
  70:	00000c93          	addi	x25,x0,0
	li s10, 0
  74:	00000d13          	addi	x26,x0,0
	li s11, 0
  78:	00000d93          	addi	x27,x0,0
	li t3, 0
  7c:	00000e13          	addi	x28,x0,0
	li t4, 0
  80:	00000e93          	addi	x29,x0,0
	li t5, 0
  84:	00000f13          	addi	x30,x0,0
	li t6, 0
  88:	00000f93          	addi	x31,x0,0
	j main
  8c:	08c0006f          	jal	x0,118 <main>

00000090 <exit>:

.global exit
.section .text
.align 4
exit:
	la sp, _sp
  90:	00010117          	auipc	x2,0x10
  94:	f7010113          	addi	x2,x2,-144 # 10000 <_sp>
	sw a0, -8(sp)
  98:	fea12c23          	sw	x10,-8(x2)
	nop
  9c:	00000013          	addi	x0,x0,0
	wfi
  a0:	10500073          	wfi
  a4:	00000013          	addi	x0,x0,0
  a8:	00000013          	addi	x0,x0,0
  ac:	00000013          	addi	x0,x0,0

000000b0 <little_endian>:
    0xb1d4d8e2, 0x8a7db9da, 0x1d7bb3de, 0x4c664941,
    0xb4ef5bcb, 0x3e92e211, 0x23e951cf, 0x6f8f188e
};

uint32_t little_endian(uint8_t * v)
{
  b0:	fe010113          	addi	x2,x2,-32
  b4:	00812e23          	sw	x8,28(x2)
  b8:	02010413          	addi	x8,x2,32
  bc:	fea42623          	sw	x10,-20(x8)
	return ( (uint32_t)v[3]) | (( (uint32_t)v[2]) << 8) |
  c0:	fec42783          	lw	x15,-20(x8)
  c4:	00378793          	addi	x15,x15,3
  c8:	0007c783          	lbu	x15,0(x15)
  cc:	00078713          	addi	x14,x15,0
  d0:	fec42783          	lw	x15,-20(x8)
  d4:	00278793          	addi	x15,x15,2
  d8:	0007c783          	lbu	x15,0(x15)
  dc:	00879793          	slli	x15,x15,0x8
  e0:	00f76733          	or	x14,x14,x15
		(( (uint32_t)v[1]) << 16) | (( (uint32_t)v[0]) << 24);
  e4:	fec42783          	lw	x15,-20(x8)
  e8:	00178793          	addi	x15,x15,1
  ec:	0007c783          	lbu	x15,0(x15)
  f0:	01079793          	slli	x15,x15,0x10
	return ( (uint32_t)v[3]) | (( (uint32_t)v[2]) << 8) |
  f4:	00f76733          	or	x14,x14,x15
		(( (uint32_t)v[1]) << 16) | (( (uint32_t)v[0]) << 24);
  f8:	fec42783          	lw	x15,-20(x8)
  fc:	0007c783          	lbu	x15,0(x15)
 100:	01879793          	slli	x15,x15,0x18
 104:	00f767b3          	or	x15,x14,x15
}
 108:	00078513          	addi	x10,x15,0
 10c:	01c12403          	lw	x8,28(x2)
 110:	02010113          	addi	x2,x2,32
 114:	00008067          	jalr	x0,0(x1)

00000118 <main>:

int main(void) {
 118:	fa010113          	addi	x2,x2,-96
 11c:	04112e23          	sw	x1,92(x2)
 120:	04812c23          	sw	x8,88(x2)
 124:	06010413          	addi	x8,x2,96
    uint32_t state_0, state_1, state_2, state_3;
    uint32_t next_state_0, next_state_1, next_state_2, next_state_3;
    uint32_t tmp;
    uint32_t plain_text[4] = {0x76543210, 0x76543210, 0x76543210, 0x76543210};
 128:	000017b7          	lui	x15,0x1
 12c:	9d078793          	addi	x15,x15,-1584 # 9d0 <round_key+0xb0>
 130:	0007a603          	lw	x12,0(x15)
 134:	0047a683          	lw	x13,4(x15)
 138:	0087a703          	lw	x14,8(x15)
 13c:	00c7a783          	lw	x15,12(x15)
 140:	fac42a23          	sw	x12,-76(x8)
 144:	fad42c23          	sw	x13,-72(x8)
 148:	fae42e23          	sw	x14,-68(x8)
 14c:	fcf42023          	sw	x15,-64(x8)
    uint32_t cipher_text[4];
    int round = 0;
 150:	fc042e23          	sw	x0,-36(x8)

    // load plain text
    state_0 = little_endian((uint8_t*)&plain_text[0]);
 154:	fb440793          	addi	x15,x8,-76
 158:	00078513          	addi	x10,x15,0
 15c:	00000097          	auipc	x1,0x0
 160:	f54080e7          	jalr	x1,-172(x1) # b0 <little_endian>
 164:	fea42623          	sw	x10,-20(x8)
    state_1 = little_endian((uint8_t*)&plain_text[1]);
 168:	fb440793          	addi	x15,x8,-76
 16c:	00478793          	addi	x15,x15,4
 170:	00078513          	addi	x10,x15,0
 174:	00000097          	auipc	x1,0x0
 178:	f3c080e7          	jalr	x1,-196(x1) # b0 <little_endian>
 17c:	fea42423          	sw	x10,-24(x8)
    state_2 = little_endian((uint8_t*)&plain_text[2]);
 180:	fb440793          	addi	x15,x8,-76
 184:	00878793          	addi	x15,x15,8
 188:	00078513          	addi	x10,x15,0
 18c:	00000097          	auipc	x1,0x0
 190:	f24080e7          	jalr	x1,-220(x1) # b0 <little_endian>
 194:	fea42223          	sw	x10,-28(x8)
    state_3 = little_endian((uint8_t*)&plain_text[3]);
 198:	fb440793          	addi	x15,x8,-76
 19c:	00c78793          	addi	x15,x15,12
 1a0:	00078513          	addi	x10,x15,0
 1a4:	00000097          	auipc	x1,0x0
 1a8:	f0c080e7          	jalr	x1,-244(x1) # b0 <little_endian>
 1ac:	fea42023          	sw	x10,-32(x8)

    // add round key
    state_0 ^= little_endian((uint8_t*)&round_key[round]);
 1b0:	fdc42783          	lw	x15,-36(x8)
 1b4:	00279713          	slli	x14,x15,0x2
 1b8:	000017b7          	lui	x15,0x1
 1bc:	92078793          	addi	x15,x15,-1760 # 920 <round_key>
 1c0:	00f707b3          	add	x15,x14,x15
 1c4:	00078513          	addi	x10,x15,0
 1c8:	00000097          	auipc	x1,0x0
 1cc:	ee8080e7          	jalr	x1,-280(x1) # b0 <little_endian>
 1d0:	00050713          	addi	x14,x10,0
 1d4:	fec42783          	lw	x15,-20(x8)
 1d8:	00e7c7b3          	xor	x15,x15,x14
 1dc:	fef42623          	sw	x15,-20(x8)
    state_1 ^= little_endian((uint8_t*)&round_key[round+1]);
 1e0:	fdc42783          	lw	x15,-36(x8)
 1e4:	00178793          	addi	x15,x15,1
 1e8:	00279713          	slli	x14,x15,0x2
 1ec:	000017b7          	lui	x15,0x1
 1f0:	92078793          	addi	x15,x15,-1760 # 920 <round_key>
 1f4:	00f707b3          	add	x15,x14,x15
 1f8:	00078513          	addi	x10,x15,0
 1fc:	00000097          	auipc	x1,0x0
 200:	eb4080e7          	jalr	x1,-332(x1) # b0 <little_endian>
 204:	00050713          	addi	x14,x10,0
 208:	fe842783          	lw	x15,-24(x8)
 20c:	00e7c7b3          	xor	x15,x15,x14
 210:	fef42423          	sw	x15,-24(x8)
    state_2 ^= little_endian((uint8_t*)&round_key[round+2]);
 214:	fdc42783          	lw	x15,-36(x8)
 218:	00278793          	addi	x15,x15,2
 21c:	00279713          	slli	x14,x15,0x2
 220:	000017b7          	lui	x15,0x1
 224:	92078793          	addi	x15,x15,-1760 # 920 <round_key>
 228:	00f707b3          	add	x15,x14,x15
 22c:	00078513          	addi	x10,x15,0
 230:	00000097          	auipc	x1,0x0
 234:	e80080e7          	jalr	x1,-384(x1) # b0 <little_endian>
 238:	00050713          	addi	x14,x10,0
 23c:	fe442783          	lw	x15,-28(x8)
 240:	00e7c7b3          	xor	x15,x15,x14
 244:	fef42223          	sw	x15,-28(x8)
    state_3 ^= little_endian((uint8_t*)&round_key[round+3]);
 248:	fdc42783          	lw	x15,-36(x8)
 24c:	00378793          	addi	x15,x15,3
 250:	00279713          	slli	x14,x15,0x2
 254:	000017b7          	lui	x15,0x1
 258:	92078793          	addi	x15,x15,-1760 # 920 <round_key>
 25c:	00f707b3          	add	x15,x14,x15
 260:	00078513          	addi	x10,x15,0
 264:	00000097          	auipc	x1,0x0
 268:	e4c080e7          	jalr	x1,-436(x1) # b0 <little_endian>
 26c:	00050713          	addi	x14,x10,0
 270:	fe042783          	lw	x15,-32(x8)
 274:	00e7c7b3          	xor	x15,x15,x14
 278:	fef42023          	sw	x15,-32(x8)

    round += 4;
 27c:	fdc42783          	lw	x15,-36(x8)
 280:	00478793          	addi	x15,x15,4
 284:	fcf42e23          	sw	x15,-36(x8)

    for(int _ = 0; _ < 9; _++) {
 288:	fc042c23          	sw	x0,-40(x8)
 28c:	3180006f          	jal	x0,5a4 <main+0x48c>
        // load round key
        next_state_0 = little_endian((uint8_t*)&round_key[round]);
 290:	fdc42783          	lw	x15,-36(x8)
 294:	00279713          	slli	x14,x15,0x2
 298:	000017b7          	lui	x15,0x1
 29c:	92078793          	addi	x15,x15,-1760 # 920 <round_key>
 2a0:	00f707b3          	add	x15,x14,x15
 2a4:	00078513          	addi	x10,x15,0
 2a8:	00000097          	auipc	x1,0x0
 2ac:	e08080e7          	jalr	x1,-504(x1) # b0 <little_endian>
 2b0:	fca42a23          	sw	x10,-44(x8)
        next_state_1 = little_endian((uint8_t*)&round_key[round+1]);
 2b4:	fdc42783          	lw	x15,-36(x8)
 2b8:	00178793          	addi	x15,x15,1
 2bc:	00279713          	slli	x14,x15,0x2
 2c0:	000017b7          	lui	x15,0x1
 2c4:	92078793          	addi	x15,x15,-1760 # 920 <round_key>
 2c8:	00f707b3          	add	x15,x14,x15
 2cc:	00078513          	addi	x10,x15,0
 2d0:	00000097          	auipc	x1,0x0
 2d4:	de0080e7          	jalr	x1,-544(x1) # b0 <little_endian>
 2d8:	fca42823          	sw	x10,-48(x8)
        next_state_2 = little_endian((uint8_t*)&round_key[round+2]);
 2dc:	fdc42783          	lw	x15,-36(x8)
 2e0:	00278793          	addi	x15,x15,2
 2e4:	00279713          	slli	x14,x15,0x2
 2e8:	000017b7          	lui	x15,0x1
 2ec:	92078793          	addi	x15,x15,-1760 # 920 <round_key>
 2f0:	00f707b3          	add	x15,x14,x15
 2f4:	00078513          	addi	x10,x15,0
 2f8:	00000097          	auipc	x1,0x0
 2fc:	db8080e7          	jalr	x1,-584(x1) # b0 <little_endian>
 300:	fca42623          	sw	x10,-52(x8)
        next_state_3 = little_endian((uint8_t*)&round_key[round+3]);
 304:	fdc42783          	lw	x15,-36(x8)
 308:	00378793          	addi	x15,x15,3
 30c:	00279713          	slli	x14,x15,0x2
 310:	000017b7          	lui	x15,0x1
 314:	92078793          	addi	x15,x15,-1760 # 920 <round_key>
 318:	00f707b3          	add	x15,x14,x15
 31c:	00078513          	addi	x10,x15,0
 320:	00000097          	auipc	x1,0x0
 324:	d90080e7          	jalr	x1,-624(x1) # b0 <little_endian>
 328:	fca42423          	sw	x10,-56(x8)

        // round with mix column
        asm volatile("aes_enc_sbox %0, %1, %2\n": "=r"(state_0):"r"(state_0),"r"(0):);
 32c:	fec42783          	lw	x15,-20(x8)
 330:	00000713          	addi	x14,x0,0
 334:	00e7e7b7          	aes_enc_sbox	x15,x15,x14
 338:	fef42623          	sw	x15,-20(x8)
        asm volatile("aes_enc_sbox %0, %1, %2\n": "=r"(state_1):"r"(state_1),"r"(0):);
 33c:	fe842783          	lw	x15,-24(x8)
 340:	00000713          	addi	x14,x0,0
 344:	00e7e7b7          	aes_enc_sbox	x15,x15,x14
 348:	fef42423          	sw	x15,-24(x8)
        asm volatile("aes_enc_sbox %0, %1, %2\n": "=r"(state_2):"r"(state_2),"r"(0):);
 34c:	fe442783          	lw	x15,-28(x8)
 350:	00000713          	addi	x14,x0,0
 354:	00e7e7b7          	aes_enc_sbox	x15,x15,x14
 358:	fef42223          	sw	x15,-28(x8)
        asm volatile("aes_enc_sbox %0, %1, %2\n": "=r"(state_3):"r"(state_3),"r"(0):);
 35c:	fe042783          	lw	x15,-32(x8)
 360:	00000713          	addi	x14,x0,0
 364:	00e7e7b7          	aes_enc_sbox	x15,x15,x14
 368:	fef42023          	sw	x15,-32(x8)

        asm volatile("aes_enc_round_mc_0 %0, %1, %2\n": "=r"(tmp):"r"(next_state_0),"r"(state_0):);
 36c:	fd442783          	lw	x15,-44(x8)
 370:	fec42703          	lw	x14,-20(x8)
 374:	00e7e7a7          	aes_enc_round_mc_0	x15,x15,x14
 378:	fcf42223          	sw	x15,-60(x8)
        next_state_0 = tmp ^ next_state_0;
 37c:	fd442703          	lw	x14,-44(x8)
 380:	fc442783          	lw	x15,-60(x8)
 384:	00f747b3          	xor	x15,x14,x15
 388:	fcf42a23          	sw	x15,-44(x8)
        asm volatile("aes_enc_round_mc_1 %0, %1, %2\n": "=r"(tmp):"r"(next_state_0),"r"(state_1):);
 38c:	fd442783          	lw	x15,-44(x8)
 390:	fe842703          	lw	x14,-24(x8)
 394:	00e7e7a3          	aes_enc_round_mc_1	x15,x15,x14
 398:	fcf42223          	sw	x15,-60(x8)
        next_state_0 = tmp ^ next_state_0;
 39c:	fd442703          	lw	x14,-44(x8)
 3a0:	fc442783          	lw	x15,-60(x8)
 3a4:	00f747b3          	xor	x15,x14,x15
 3a8:	fcf42a23          	sw	x15,-44(x8)
        asm volatile("aes_enc_round_mc_2 %0, %1, %2\n": "=r"(tmp):"r"(next_state_0),"r"(state_2):);
 3ac:	fd442783          	lw	x15,-44(x8)
 3b0:	fe442703          	lw	x14,-28(x8)
 3b4:	00e7e7ab          	aes_enc_round_mc_2	x15,x15,x14
 3b8:	fcf42223          	sw	x15,-60(x8)
        next_state_0 = tmp ^ next_state_0;
 3bc:	fd442703          	lw	x14,-44(x8)
 3c0:	fc442783          	lw	x15,-60(x8)
 3c4:	00f747b3          	xor	x15,x14,x15
 3c8:	fcf42a23          	sw	x15,-44(x8)
        asm volatile("aes_enc_round_mc_3 %0, %1, %2\n": "=r"(tmp):"r"(next_state_0),"r"(state_3):);
 3cc:	fd442783          	lw	x15,-44(x8)
 3d0:	fe042703          	lw	x14,-32(x8)
 3d4:	00e7e7af          	aes_enc_round_mc_3	x15,x15,x14
 3d8:	fcf42223          	sw	x15,-60(x8)
        next_state_0 = tmp ^ next_state_0;
 3dc:	fd442703          	lw	x14,-44(x8)
 3e0:	fc442783          	lw	x15,-60(x8)
 3e4:	00f747b3          	xor	x15,x14,x15
 3e8:	fcf42a23          	sw	x15,-44(x8)

        asm volatile("aes_enc_round_mc_0 %0, %1, %2\n": "=r"(tmp):"r"(next_state_1),"r"(state_1):);
 3ec:	fd042783          	lw	x15,-48(x8)
 3f0:	fe842703          	lw	x14,-24(x8)
 3f4:	00e7e7a7          	aes_enc_round_mc_0	x15,x15,x14
 3f8:	fcf42223          	sw	x15,-60(x8)
        next_state_1 = tmp ^ next_state_1;
 3fc:	fd042703          	lw	x14,-48(x8)
 400:	fc442783          	lw	x15,-60(x8)
 404:	00f747b3          	xor	x15,x14,x15
 408:	fcf42823          	sw	x15,-48(x8)
        asm volatile("aes_enc_round_mc_1 %0, %1, %2\n": "=r"(tmp):"r"(next_state_1),"r"(state_2):);
 40c:	fd042783          	lw	x15,-48(x8)
 410:	fe442703          	lw	x14,-28(x8)
 414:	00e7e7a3          	aes_enc_round_mc_1	x15,x15,x14
 418:	fcf42223          	sw	x15,-60(x8)
        next_state_1 = tmp ^ next_state_1;
 41c:	fd042703          	lw	x14,-48(x8)
 420:	fc442783          	lw	x15,-60(x8)
 424:	00f747b3          	xor	x15,x14,x15
 428:	fcf42823          	sw	x15,-48(x8)
        asm volatile("aes_enc_round_mc_2 %0, %1, %2\n": "=r"(tmp):"r"(next_state_1),"r"(state_3):);
 42c:	fd042783          	lw	x15,-48(x8)
 430:	fe042703          	lw	x14,-32(x8)
 434:	00e7e7ab          	aes_enc_round_mc_2	x15,x15,x14
 438:	fcf42223          	sw	x15,-60(x8)
        next_state_1 = tmp ^ next_state_1;
 43c:	fd042703          	lw	x14,-48(x8)
 440:	fc442783          	lw	x15,-60(x8)
 444:	00f747b3          	xor	x15,x14,x15
 448:	fcf42823          	sw	x15,-48(x8)
        asm volatile("aes_enc_round_mc_3 %0, %1, %2\n": "=r"(tmp):"r"(next_state_1),"r"(state_0):);
 44c:	fd042783          	lw	x15,-48(x8)
 450:	fec42703          	lw	x14,-20(x8)
 454:	00e7e7af          	aes_enc_round_mc_3	x15,x15,x14
 458:	fcf42223          	sw	x15,-60(x8)
        next_state_1 = tmp ^ next_state_1;
 45c:	fd042703          	lw	x14,-48(x8)
 460:	fc442783          	lw	x15,-60(x8)
 464:	00f747b3          	xor	x15,x14,x15
 468:	fcf42823          	sw	x15,-48(x8)

        asm volatile("aes_enc_round_mc_0 %0, %1, %2\n": "=r"(tmp):"r"(next_state_2),"r"(state_2):);
 46c:	fcc42783          	lw	x15,-52(x8)
 470:	fe442703          	lw	x14,-28(x8)
 474:	00e7e7a7          	aes_enc_round_mc_0	x15,x15,x14
 478:	fcf42223          	sw	x15,-60(x8)
        next_state_2 = tmp ^ next_state_2;
 47c:	fcc42703          	lw	x14,-52(x8)
 480:	fc442783          	lw	x15,-60(x8)
 484:	00f747b3          	xor	x15,x14,x15
 488:	fcf42623          	sw	x15,-52(x8)
        asm volatile("aes_enc_round_mc_1 %0, %1, %2\n": "=r"(tmp):"r"(next_state_2),"r"(state_3):);
 48c:	fcc42783          	lw	x15,-52(x8)
 490:	fe042703          	lw	x14,-32(x8)
 494:	00e7e7a3          	aes_enc_round_mc_1	x15,x15,x14
 498:	fcf42223          	sw	x15,-60(x8)
        next_state_2 = tmp ^ next_state_2;
 49c:	fcc42703          	lw	x14,-52(x8)
 4a0:	fc442783          	lw	x15,-60(x8)
 4a4:	00f747b3          	xor	x15,x14,x15
 4a8:	fcf42623          	sw	x15,-52(x8)
        asm volatile("aes_enc_round_mc_2 %0, %1, %2\n": "=r"(tmp):"r"(next_state_2),"r"(state_0):);
 4ac:	fcc42783          	lw	x15,-52(x8)
 4b0:	fec42703          	lw	x14,-20(x8)
 4b4:	00e7e7ab          	aes_enc_round_mc_2	x15,x15,x14
 4b8:	fcf42223          	sw	x15,-60(x8)
        next_state_2 = tmp ^ next_state_2;
 4bc:	fcc42703          	lw	x14,-52(x8)
 4c0:	fc442783          	lw	x15,-60(x8)
 4c4:	00f747b3          	xor	x15,x14,x15
 4c8:	fcf42623          	sw	x15,-52(x8)
        asm volatile("aes_enc_round_mc_3 %0, %1, %2\n": "=r"(tmp):"r"(next_state_2),"r"(state_1):);
 4cc:	fcc42783          	lw	x15,-52(x8)
 4d0:	fe842703          	lw	x14,-24(x8)
 4d4:	00e7e7af          	aes_enc_round_mc_3	x15,x15,x14
 4d8:	fcf42223          	sw	x15,-60(x8)
        next_state_2 = tmp ^ next_state_2;
 4dc:	fcc42703          	lw	x14,-52(x8)
 4e0:	fc442783          	lw	x15,-60(x8)
 4e4:	00f747b3          	xor	x15,x14,x15
 4e8:	fcf42623          	sw	x15,-52(x8)

        asm volatile("aes_enc_round_mc_0 %0, %1, %2\n": "=r"(tmp):"r"(next_state_3),"r"(state_3):);
 4ec:	fc842783          	lw	x15,-56(x8)
 4f0:	fe042703          	lw	x14,-32(x8)
 4f4:	00e7e7a7          	aes_enc_round_mc_0	x15,x15,x14
 4f8:	fcf42223          	sw	x15,-60(x8)
        next_state_3 = tmp ^ next_state_3;
 4fc:	fc842703          	lw	x14,-56(x8)
 500:	fc442783          	lw	x15,-60(x8)
 504:	00f747b3          	xor	x15,x14,x15
 508:	fcf42423          	sw	x15,-56(x8)
        asm volatile("aes_enc_round_mc_1 %0, %1, %2\n": "=r"(tmp):"r"(next_state_3),"r"(state_0):);
 50c:	fc842783          	lw	x15,-56(x8)
 510:	fec42703          	lw	x14,-20(x8)
 514:	00e7e7a3          	aes_enc_round_mc_1	x15,x15,x14
 518:	fcf42223          	sw	x15,-60(x8)
        next_state_3 = tmp ^ next_state_3;
 51c:	fc842703          	lw	x14,-56(x8)
 520:	fc442783          	lw	x15,-60(x8)
 524:	00f747b3          	xor	x15,x14,x15
 528:	fcf42423          	sw	x15,-56(x8)
        asm volatile("aes_enc_round_mc_2 %0, %1, %2\n": "=r"(tmp):"r"(next_state_3),"r"(state_1):);
 52c:	fc842783          	lw	x15,-56(x8)
 530:	fe842703          	lw	x14,-24(x8)
 534:	00e7e7ab          	aes_enc_round_mc_2	x15,x15,x14
 538:	fcf42223          	sw	x15,-60(x8)
        next_state_3 = tmp ^ next_state_3;
 53c:	fc842703          	lw	x14,-56(x8)
 540:	fc442783          	lw	x15,-60(x8)
 544:	00f747b3          	xor	x15,x14,x15
 548:	fcf42423          	sw	x15,-56(x8)
        asm volatile("aes_enc_round_mc_3 %0, %1, %2\n": "=r"(tmp):"r"(next_state_3),"r"(state_2):);
 54c:	fc842783          	lw	x15,-56(x8)
 550:	fe442703          	lw	x14,-28(x8)
 554:	00e7e7af          	aes_enc_round_mc_3	x15,x15,x14
 558:	fcf42223          	sw	x15,-60(x8)
        next_state_3 = tmp ^ next_state_3;
 55c:	fc842703          	lw	x14,-56(x8)
 560:	fc442783          	lw	x15,-60(x8)
 564:	00f747b3          	xor	x15,x14,x15
 568:	fcf42423          	sw	x15,-56(x8)

        state_0 = next_state_0;
 56c:	fd442783          	lw	x15,-44(x8)
 570:	fef42623          	sw	x15,-20(x8)
        state_1 = next_state_1;
 574:	fd042783          	lw	x15,-48(x8)
 578:	fef42423          	sw	x15,-24(x8)
        state_2 = next_state_2;
 57c:	fcc42783          	lw	x15,-52(x8)
 580:	fef42223          	sw	x15,-28(x8)
        state_3 = next_state_3;
 584:	fc842783          	lw	x15,-56(x8)
 588:	fef42023          	sw	x15,-32(x8)

        round += 4;  
 58c:	fdc42783          	lw	x15,-36(x8)
 590:	00478793          	addi	x15,x15,4 # e7e004 <_sp+0xe6e004>
 594:	fcf42e23          	sw	x15,-36(x8)
    for(int _ = 0; _ < 9; _++) {
 598:	fd842783          	lw	x15,-40(x8)
 59c:	00178793          	addi	x15,x15,1
 5a0:	fcf42c23          	sw	x15,-40(x8)
 5a4:	fd842703          	lw	x14,-40(x8)
 5a8:	00800793          	addi	x15,x0,8
 5ac:	cee7d2e3          	bge	x15,x14,290 <main+0x178>
    }

    next_state_0 = little_endian((uint8_t*)&round_key[round]);
 5b0:	fdc42783          	lw	x15,-36(x8)
 5b4:	00279713          	slli	x14,x15,0x2
 5b8:	000017b7          	lui	x15,0x1
 5bc:	92078793          	addi	x15,x15,-1760 # 920 <round_key>
 5c0:	00f707b3          	add	x15,x14,x15
 5c4:	00078513          	addi	x10,x15,0
 5c8:	00000097          	auipc	x1,0x0
 5cc:	ae8080e7          	jalr	x1,-1304(x1) # b0 <little_endian>
 5d0:	fca42a23          	sw	x10,-44(x8)
    next_state_1 = little_endian((uint8_t*)&round_key[round+1]);
 5d4:	fdc42783          	lw	x15,-36(x8)
 5d8:	00178793          	addi	x15,x15,1
 5dc:	00279713          	slli	x14,x15,0x2
 5e0:	000017b7          	lui	x15,0x1
 5e4:	92078793          	addi	x15,x15,-1760 # 920 <round_key>
 5e8:	00f707b3          	add	x15,x14,x15
 5ec:	00078513          	addi	x10,x15,0
 5f0:	00000097          	auipc	x1,0x0
 5f4:	ac0080e7          	jalr	x1,-1344(x1) # b0 <little_endian>
 5f8:	fca42823          	sw	x10,-48(x8)
    next_state_2 = little_endian((uint8_t*)&round_key[round+2]);
 5fc:	fdc42783          	lw	x15,-36(x8)
 600:	00278793          	addi	x15,x15,2
 604:	00279713          	slli	x14,x15,0x2
 608:	000017b7          	lui	x15,0x1
 60c:	92078793          	addi	x15,x15,-1760 # 920 <round_key>
 610:	00f707b3          	add	x15,x14,x15
 614:	00078513          	addi	x10,x15,0
 618:	00000097          	auipc	x1,0x0
 61c:	a98080e7          	jalr	x1,-1384(x1) # b0 <little_endian>
 620:	fca42623          	sw	x10,-52(x8)
    next_state_3 = little_endian((uint8_t*)&round_key[round+3]);
 624:	fdc42783          	lw	x15,-36(x8)
 628:	00378793          	addi	x15,x15,3
 62c:	00279713          	slli	x14,x15,0x2
 630:	000017b7          	lui	x15,0x1
 634:	92078793          	addi	x15,x15,-1760 # 920 <round_key>
 638:	00f707b3          	add	x15,x14,x15
 63c:	00078513          	addi	x10,x15,0
 640:	00000097          	auipc	x1,0x0
 644:	a70080e7          	jalr	x1,-1424(x1) # b0 <little_endian>
 648:	fca42423          	sw	x10,-56(x8)

    asm volatile("aes_enc_sbox %0, %1, %2\n": "=r"(state_0):"r"(state_0),"r"(0):);
 64c:	fec42783          	lw	x15,-20(x8)
 650:	00000713          	addi	x14,x0,0
 654:	00e7e7b7          	aes_enc_sbox	x15,x15,x14
 658:	fef42623          	sw	x15,-20(x8)
    asm volatile("aes_enc_sbox %0, %1, %2\n": "=r"(state_1):"r"(state_1),"r"(0):);
 65c:	fe842783          	lw	x15,-24(x8)
 660:	00000713          	addi	x14,x0,0
 664:	00e7e7b7          	aes_enc_sbox	x15,x15,x14
 668:	fef42423          	sw	x15,-24(x8)
    asm volatile("aes_enc_sbox %0, %1, %2\n": "=r"(state_2):"r"(state_2),"r"(0):);
 66c:	fe442783          	lw	x15,-28(x8)
 670:	00000713          	addi	x14,x0,0
 674:	00e7e7b7          	aes_enc_sbox	x15,x15,x14
 678:	fef42223          	sw	x15,-28(x8)
    asm volatile("aes_enc_sbox %0, %1, %2\n": "=r"(state_3):"r"(state_3),"r"(0):);
 67c:	fe042783          	lw	x15,-32(x8)
 680:	00000713          	addi	x14,x0,0
 684:	00e7e7b7          	aes_enc_sbox	x15,x15,x14
 688:	fef42023          	sw	x15,-32(x8)

    asm volatile("aes_enc_round_0 %0, %1, %2\n": "=r"(tmp):"r"(next_state_0),"r"(state_0):);
 68c:	fd442783          	lw	x15,-44(x8)
 690:	fec42703          	lw	x14,-20(x8)
 694:	00e7e787          	aes_enc_round_0	x15,x15,x14
 698:	fcf42223          	sw	x15,-60(x8)
    next_state_0 = tmp ^ next_state_0;
 69c:	fd442703          	lw	x14,-44(x8)
 6a0:	fc442783          	lw	x15,-60(x8)
 6a4:	00f747b3          	xor	x15,x14,x15
 6a8:	fcf42a23          	sw	x15,-44(x8)
    asm volatile("aes_enc_round_1 %0, %1, %2\n": "=r"(tmp):"r"(next_state_0),"r"(state_1):);
 6ac:	fd442783          	lw	x15,-44(x8)
 6b0:	fe842703          	lw	x14,-24(x8)
 6b4:	00e7e783          	aes_enc_round_1	x15,x15,x14
 6b8:	fcf42223          	sw	x15,-60(x8)
    next_state_0 = tmp ^ next_state_0;
 6bc:	fd442703          	lw	x14,-44(x8)
 6c0:	fc442783          	lw	x15,-60(x8)
 6c4:	00f747b3          	xor	x15,x14,x15
 6c8:	fcf42a23          	sw	x15,-44(x8)
    asm volatile("aes_enc_round_2 %0, %1, %2\n": "=r"(tmp):"r"(next_state_0),"r"(state_2):);
 6cc:	fd442783          	lw	x15,-44(x8)
 6d0:	fe442703          	lw	x14,-28(x8)
 6d4:	00e7e78b          	aes_enc_round_2	x15,x15,x14
 6d8:	fcf42223          	sw	x15,-60(x8)
    next_state_0 = tmp ^ next_state_0;
 6dc:	fd442703          	lw	x14,-44(x8)
 6e0:	fc442783          	lw	x15,-60(x8)
 6e4:	00f747b3          	xor	x15,x14,x15
 6e8:	fcf42a23          	sw	x15,-44(x8)
    asm volatile("aes_enc_round_3 %0, %1, %2\n": "=r"(tmp):"r"(next_state_0),"r"(state_3):);
 6ec:	fd442783          	lw	x15,-44(x8)
 6f0:	fe042703          	lw	x14,-32(x8)
 6f4:	00e7e78f          	aes_enc_round_3	x15,x15,x14
 6f8:	fcf42223          	sw	x15,-60(x8)
    next_state_0 = tmp ^ next_state_0;
 6fc:	fd442703          	lw	x14,-44(x8)
 700:	fc442783          	lw	x15,-60(x8)
 704:	00f747b3          	xor	x15,x14,x15
 708:	fcf42a23          	sw	x15,-44(x8)

    asm volatile("aes_enc_round_0 %0, %1, %2\n": "=r"(tmp):"r"(next_state_1),"r"(state_1):);
 70c:	fd042783          	lw	x15,-48(x8)
 710:	fe842703          	lw	x14,-24(x8)
 714:	00e7e787          	aes_enc_round_0	x15,x15,x14
 718:	fcf42223          	sw	x15,-60(x8)
    next_state_1 = tmp ^ next_state_1;
 71c:	fd042703          	lw	x14,-48(x8)
 720:	fc442783          	lw	x15,-60(x8)
 724:	00f747b3          	xor	x15,x14,x15
 728:	fcf42823          	sw	x15,-48(x8)
    asm volatile("aes_enc_round_1 %0, %1, %2\n": "=r"(tmp):"r"(next_state_1),"r"(state_2):);
 72c:	fd042783          	lw	x15,-48(x8)
 730:	fe442703          	lw	x14,-28(x8)
 734:	00e7e783          	aes_enc_round_1	x15,x15,x14
 738:	fcf42223          	sw	x15,-60(x8)
    next_state_1 = tmp ^ next_state_1;
 73c:	fd042703          	lw	x14,-48(x8)
 740:	fc442783          	lw	x15,-60(x8)
 744:	00f747b3          	xor	x15,x14,x15
 748:	fcf42823          	sw	x15,-48(x8)
    asm volatile("aes_enc_round_2 %0, %1, %2\n": "=r"(tmp):"r"(next_state_1),"r"(state_3):);
 74c:	fd042783          	lw	x15,-48(x8)
 750:	fe042703          	lw	x14,-32(x8)
 754:	00e7e78b          	aes_enc_round_2	x15,x15,x14
 758:	fcf42223          	sw	x15,-60(x8)
    next_state_1 = tmp ^ next_state_1;
 75c:	fd042703          	lw	x14,-48(x8)
 760:	fc442783          	lw	x15,-60(x8)
 764:	00f747b3          	xor	x15,x14,x15
 768:	fcf42823          	sw	x15,-48(x8)
    asm volatile("aes_enc_round_3 %0, %1, %2\n": "=r"(tmp):"r"(next_state_1),"r"(state_0):);
 76c:	fd042783          	lw	x15,-48(x8)
 770:	fec42703          	lw	x14,-20(x8)
 774:	00e7e78f          	aes_enc_round_3	x15,x15,x14
 778:	fcf42223          	sw	x15,-60(x8)
    next_state_1 = tmp ^ next_state_1;
 77c:	fd042703          	lw	x14,-48(x8)
 780:	fc442783          	lw	x15,-60(x8)
 784:	00f747b3          	xor	x15,x14,x15
 788:	fcf42823          	sw	x15,-48(x8)

    asm volatile("aes_enc_round_0 %0, %1, %2\n": "=r"(tmp):"r"(next_state_2),"r"(state_2):);
 78c:	fcc42783          	lw	x15,-52(x8)
 790:	fe442703          	lw	x14,-28(x8)
 794:	00e7e787          	aes_enc_round_0	x15,x15,x14
 798:	fcf42223          	sw	x15,-60(x8)
    next_state_2 = tmp ^ next_state_2;
 79c:	fcc42703          	lw	x14,-52(x8)
 7a0:	fc442783          	lw	x15,-60(x8)
 7a4:	00f747b3          	xor	x15,x14,x15
 7a8:	fcf42623          	sw	x15,-52(x8)
    asm volatile("aes_enc_round_1 %0, %1, %2\n": "=r"(tmp):"r"(next_state_2),"r"(state_3):);
 7ac:	fcc42783          	lw	x15,-52(x8)
 7b0:	fe042703          	lw	x14,-32(x8)
 7b4:	00e7e783          	aes_enc_round_1	x15,x15,x14
 7b8:	fcf42223          	sw	x15,-60(x8)
    next_state_2 = tmp ^ next_state_2;
 7bc:	fcc42703          	lw	x14,-52(x8)
 7c0:	fc442783          	lw	x15,-60(x8)
 7c4:	00f747b3          	xor	x15,x14,x15
 7c8:	fcf42623          	sw	x15,-52(x8)
    asm volatile("aes_enc_round_2 %0, %1, %2\n": "=r"(tmp):"r"(next_state_2),"r"(state_0):);
 7cc:	fcc42783          	lw	x15,-52(x8)
 7d0:	fec42703          	lw	x14,-20(x8)
 7d4:	00e7e78b          	aes_enc_round_2	x15,x15,x14
 7d8:	fcf42223          	sw	x15,-60(x8)
    next_state_2 = tmp ^ next_state_2;
 7dc:	fcc42703          	lw	x14,-52(x8)
 7e0:	fc442783          	lw	x15,-60(x8)
 7e4:	00f747b3          	xor	x15,x14,x15
 7e8:	fcf42623          	sw	x15,-52(x8)
    asm volatile("aes_enc_round_3 %0, %1, %2\n": "=r"(tmp):"r"(next_state_2),"r"(state_1):);
 7ec:	fcc42783          	lw	x15,-52(x8)
 7f0:	fe842703          	lw	x14,-24(x8)
 7f4:	00e7e78f          	aes_enc_round_3	x15,x15,x14
 7f8:	fcf42223          	sw	x15,-60(x8)
    next_state_2 = tmp ^ next_state_2;
 7fc:	fcc42703          	lw	x14,-52(x8)
 800:	fc442783          	lw	x15,-60(x8)
 804:	00f747b3          	xor	x15,x14,x15
 808:	fcf42623          	sw	x15,-52(x8)

    asm volatile("aes_enc_round_0 %0, %1, %2\n": "=r"(tmp):"r"(next_state_3),"r"(state_3):);
 80c:	fc842783          	lw	x15,-56(x8)
 810:	fe042703          	lw	x14,-32(x8)
 814:	00e7e787          	aes_enc_round_0	x15,x15,x14
 818:	fcf42223          	sw	x15,-60(x8)
    next_state_3 = tmp ^ next_state_3;
 81c:	fc842703          	lw	x14,-56(x8)
 820:	fc442783          	lw	x15,-60(x8)
 824:	00f747b3          	xor	x15,x14,x15
 828:	fcf42423          	sw	x15,-56(x8)
    asm volatile("aes_enc_round_1 %0, %1, %2\n": "=r"(tmp):"r"(next_state_3),"r"(state_0):);
 82c:	fc842783          	lw	x15,-56(x8)
 830:	fec42703          	lw	x14,-20(x8)
 834:	00e7e783          	aes_enc_round_1	x15,x15,x14
 838:	fcf42223          	sw	x15,-60(x8)
    next_state_3 = tmp ^ next_state_3;
 83c:	fc842703          	lw	x14,-56(x8)
 840:	fc442783          	lw	x15,-60(x8)
 844:	00f747b3          	xor	x15,x14,x15
 848:	fcf42423          	sw	x15,-56(x8)
    asm volatile("aes_enc_round_2 %0, %1, %2\n": "=r"(tmp):"r"(next_state_3),"r"(state_1):);
 84c:	fc842783          	lw	x15,-56(x8)
 850:	fe842703          	lw	x14,-24(x8)
 854:	00e7e78b          	aes_enc_round_2	x15,x15,x14
 858:	fcf42223          	sw	x15,-60(x8)
    next_state_3 = tmp ^ next_state_3;
 85c:	fc842703          	lw	x14,-56(x8)
 860:	fc442783          	lw	x15,-60(x8)
 864:	00f747b3          	xor	x15,x14,x15
 868:	fcf42423          	sw	x15,-56(x8)
    asm volatile("aes_enc_round_3 %0, %1, %2\n": "=r"(tmp):"r"(next_state_3),"r"(state_2):);
 86c:	fc842783          	lw	x15,-56(x8)
 870:	fe442703          	lw	x14,-28(x8)
 874:	00e7e78f          	aes_enc_round_3	x15,x15,x14
 878:	fcf42223          	sw	x15,-60(x8)
    next_state_3 = tmp ^ next_state_3;
 87c:	fc842703          	lw	x14,-56(x8)
 880:	fc442783          	lw	x15,-60(x8)
 884:	00f747b3          	xor	x15,x14,x15
 888:	fcf42423          	sw	x15,-56(x8)

    cipher_text[0] = next_state_0;
 88c:	fd442783          	lw	x15,-44(x8)
 890:	faf42223          	sw	x15,-92(x8)
    cipher_text[1] = next_state_1;
 894:	fd042783          	lw	x15,-48(x8)
 898:	faf42423          	sw	x15,-88(x8)
    cipher_text[2] = next_state_2;
 89c:	fcc42783          	lw	x15,-52(x8)
 8a0:	faf42623          	sw	x15,-84(x8)
    cipher_text[3] = next_state_3;
 8a4:	fc842783          	lw	x15,-56(x8)
 8a8:	faf42823          	sw	x15,-80(x8)

    return 0;
 8ac:	00000793          	addi	x15,x0,0
 8b0:	00078513          	addi	x10,x15,0 # e7e000 <_sp+0xe6e000>
 8b4:	05c12083          	lw	x1,92(x2)
 8b8:	05812403          	lw	x8,88(x2)
 8bc:	06010113          	addi	x2,x2,96
 8c0:	00008067          	jalr	x0,0(x1)
	...

Disassembly of section .rodata:

00000920 <round_key>:
	...
 930:	62636363          	bltu	x6,x6,f56 <_ebss+0x576>
 934:	62636363          	bltu	x6,x6,f5a <_ebss+0x57a>
 938:	62636363          	bltu	x6,x6,f5e <_ebss+0x57e>
 93c:	62636363          	bltu	x6,x6,f62 <_ebss+0x582>
 940:	98c9                	.2byte	0x98c9
 942:	9b98                	.2byte	0x9b98
 944:	fbaa                	.2byte	0xfbaa
 946:	98c9f9fb          	.4byte	0x98c9f9fb
 94a:	9b98                	.2byte	0x9b98
 94c:	fbaa                	.2byte	0xfbaa
 94e:	3450f9fb          	.4byte	0x3450f9fb
 952:	cffa9097          	auipc	x1,0xcffa9
 956:	696c                	.2byte	0x696c
 958:	f2f45733          	.4byte	0xf2f45733
 95c:	ac99                	.2byte	0xac99
 95e:	da7b0b0f          	.4byte	0xda7b0b0f
 962:	ee06                	.2byte	0xee06
 964:	1581                	.2byte	0x1581
 966:	876a                	.2byte	0x876a
 968:	42b2                	.2byte	0x42b2
 96a:	759e                	.2byte	0x759e
 96c:	7e91ee2b          	.4byte	0x7e91ee2b
 970:	2b88                	.2byte	0x2b88
 972:	7f2e                	.2byte	0x7f2e
 974:	3e09                	.2byte	0x3e09
 976:	f844                	.2byte	0xf844
 978:	8dda7cbb          	.4byte	0x8dda7cbb
 97c:	9290                	.2byte	0x9290
 97e:	4b85f34b          	.4byte	0x4b85f34b
 982:	ec61                	.2byte	0xec61
 984:	758c                	.2byte	0x758c
 986:	1425                	.2byte	0x1425
 988:	99ff0937          	lui	x18,0x99ff0
 98c:	6ab49ba7          	.4byte	0x6ab49ba7
 990:	21751787          	.4byte	0x21751787
 994:	3550620b          	.4byte	0x3550620b
 998:	6b3c                	.2byte	0x6b3c
 99a:	f09bacaf          	.4byte	0xf09bacaf
 99e:	0333c61b          	.4byte	0x333c61b
 9a2:	0ef9                	.2byte	0xef9
 9a4:	6138                	.2byte	0x6138
 9a6:	3ba9                	.2byte	0x3ba9
 9a8:	0a04                	.2byte	0xa04
 9aa:	9706                	.2byte	0x9706
 9ac:	fa9f 511d d8e2      	.byte	0x9f, 0xfa, 0x1d, 0x51, 0xe2, 0xd8
 9b2:	b1d4                	.2byte	0xb1d4
 9b4:	b9da                	.2byte	0xb9da
 9b6:	8a7d                	.2byte	0x8a7d
 9b8:	b3de                	.2byte	0xb3de
 9ba:	49411d7b          	.4byte	0x49411d7b
 9be:	4c66                	.2byte	0x4c66
 9c0:	b4ef5bcb          	.4byte	0xb4ef5bcb
 9c4:	e211                	.2byte	0xe211
 9c6:	3e92                	.2byte	0x3e92
 9c8:	23e951cf          	.4byte	0x23e951cf
 9cc:	188e                	.2byte	0x188e
 9ce:	32106f8f          	.4byte	0x32106f8f
 9d2:	7654                	.2byte	0x7654
 9d4:	3210                	.2byte	0x3210
 9d6:	7654                	.2byte	0x7654
 9d8:	3210                	.2byte	0x3210
 9da:	7654                	.2byte	0x7654
 9dc:	3210                	.2byte	0x3210
 9de:	7654                	.2byte	0x7654

