
program.debug.elf:     file format elf32-littleriscv


Disassembly of section .text:

00000000 <crt>:

.global crt
.section .text.prologue, "ax"
.align 4
crt:
	nop
   0:	00000013          	addi	x0,x0,0
	la ra, exit
   4:	00000097          	auipc	x1,0x0
   8:	08c08093          	addi	x1,x1,140 # 90 <exit>
	la sp, _sp
   c:	00010117          	auipc	x2,0x10
  10:	ff410113          	addi	x2,x2,-12 # 10000 <_sp>
	mv s0, sp
  14:	00010413          	addi	x8,x2,0
	la gp, __global_pointer$
  18:	00001197          	auipc	x3,0x1
  1c:	f0818193          	addi	x3,x3,-248 # f20 <__global_pointer$>
	li tp, 0
  20:	00000213          	addi	x4,x0,0
	li t0, 0
  24:	00000293          	addi	x5,x0,0
	li t1, 0
  28:	00000313          	addi	x6,x0,0
	li t2, 0
  2c:	00000393          	addi	x7,x0,0
	li s1, 0
  30:	00000493          	addi	x9,x0,0
	li a0, 0
  34:	00000513          	addi	x10,x0,0
	li a1, 0
  38:	00000593          	addi	x11,x0,0
	li a2, 0
  3c:	00000613          	addi	x12,x0,0
	li a3, 0
  40:	00000693          	addi	x13,x0,0
	li a4, 0
  44:	00000713          	addi	x14,x0,0
	li a5, 0
  48:	00000793          	addi	x15,x0,0
	li a6, 0
  4c:	00000813          	addi	x16,x0,0
	li a7, 0
  50:	00000893          	addi	x17,x0,0
	li s2, 0
  54:	00000913          	addi	x18,x0,0
	li s3, 0
  58:	00000993          	addi	x19,x0,0
	li s4, 0
  5c:	00000a13          	addi	x20,x0,0
	li s5, 0
  60:	00000a93          	addi	x21,x0,0
	li s6, 0
  64:	00000b13          	addi	x22,x0,0
	li s7, 0
  68:	00000b93          	addi	x23,x0,0
	li s8, 0
  6c:	00000c13          	addi	x24,x0,0
	li s9, 0
  70:	00000c93          	addi	x25,x0,0
	li s10, 0
  74:	00000d13          	addi	x26,x0,0
	li s11, 0
  78:	00000d93          	addi	x27,x0,0
	li t3, 0
  7c:	00000e13          	addi	x28,x0,0
	li t4, 0
  80:	00000e93          	addi	x29,x0,0
	li t5, 0
  84:	00000f13          	addi	x30,x0,0
	li t6, 0
  88:	00000f93          	addi	x31,x0,0
	j main
  8c:	08c0006f          	jal	x0,118 <main>

00000090 <exit>:

.global exit
.section .text
.align 4
exit:
	la sp, _sp
  90:	00010117          	auipc	x2,0x10
  94:	f7010113          	addi	x2,x2,-144 # 10000 <_sp>
	sw a0, -8(sp)
  98:	fea12c23          	sw	x10,-8(x2)
	nop
  9c:	00000013          	addi	x0,x0,0
	wfi
  a0:	10500073          	wfi
  a4:	00000013          	addi	x0,x0,0
  a8:	00000013          	addi	x0,x0,0
  ac:	00000013          	addi	x0,x0,0

000000b0 <little_endian>:
    0xb1d4d8e2, 0x8a7db9da, 0x1d7bb3de, 0x4c664941,
    0xb4ef5bcb, 0x3e92e211, 0x23e951cf, 0x6f8f188e
};

uint32_t little_endian(uint8_t * v)
{
  b0:	fe010113          	addi	x2,x2,-32
  b4:	00812e23          	sw	x8,28(x2)
  b8:	02010413          	addi	x8,x2,32
  bc:	fea42623          	sw	x10,-20(x8)
	return ( (uint32_t)v[3]) | (( (uint32_t)v[2]) << 8) |
  c0:	fec42783          	lw	x15,-20(x8)
  c4:	00378793          	addi	x15,x15,3
  c8:	0007c783          	lbu	x15,0(x15)
  cc:	00078713          	addi	x14,x15,0
  d0:	fec42783          	lw	x15,-20(x8)
  d4:	00278793          	addi	x15,x15,2
  d8:	0007c783          	lbu	x15,0(x15)
  dc:	00879793          	slli	x15,x15,0x8
  e0:	00f76733          	or	x14,x14,x15
		(( (uint32_t)v[1]) << 16) | (( (uint32_t)v[0]) << 24);
  e4:	fec42783          	lw	x15,-20(x8)
  e8:	00178793          	addi	x15,x15,1
  ec:	0007c783          	lbu	x15,0(x15)
  f0:	01079793          	slli	x15,x15,0x10
	return ( (uint32_t)v[3]) | (( (uint32_t)v[2]) << 8) |
  f4:	00f76733          	or	x14,x14,x15
		(( (uint32_t)v[1]) << 16) | (( (uint32_t)v[0]) << 24);
  f8:	fec42783          	lw	x15,-20(x8)
  fc:	0007c783          	lbu	x15,0(x15)
 100:	01879793          	slli	x15,x15,0x18
 104:	00f767b3          	or	x15,x14,x15
}
 108:	00078513          	addi	x10,x15,0
 10c:	01c12403          	lw	x8,28(x2)
 110:	02010113          	addi	x2,x2,32
 114:	00008067          	jalr	x0,0(x1)

00000118 <main>:

int main(void) {
 118:	fa010113          	addi	x2,x2,-96
 11c:	04112e23          	sw	x1,92(x2)
 120:	04812c23          	sw	x8,88(x2)
 124:	06010413          	addi	x8,x2,96
    uint32_t state_0, state_1, state_2, state_3;
    uint32_t next_state_0, next_state_1, next_state_2, next_state_3;
    uint32_t plain_text[4] = {0x76543210, 0x76543210, 0x76543210, 0x76543210};
 128:	000007b7          	lui	x15,0x0
 12c:	75078793          	addi	x15,x15,1872 # 750 <round_key+0xb0>
 130:	0007a603          	lw	x12,0(x15)
 134:	0047a683          	lw	x13,4(x15)
 138:	0087a703          	lw	x14,8(x15)
 13c:	00c7a783          	lw	x15,12(x15)
 140:	fac42c23          	sw	x12,-72(x8)
 144:	fad42e23          	sw	x13,-68(x8)
 148:	fce42023          	sw	x14,-64(x8)
 14c:	fcf42223          	sw	x15,-60(x8)
    uint32_t cipher_text[4];
    int round = 0;
 150:	fc042e23          	sw	x0,-36(x8)

    // load plain text
    state_0 = little_endian((uint8_t*)&plain_text[0]);
 154:	fb840793          	addi	x15,x8,-72
 158:	00078513          	addi	x10,x15,0
 15c:	00000097          	auipc	x1,0x0
 160:	f54080e7          	jalr	x1,-172(x1) # b0 <little_endian>
 164:	fea42623          	sw	x10,-20(x8)
    state_1 = little_endian((uint8_t*)&plain_text[1]);
 168:	fb840793          	addi	x15,x8,-72
 16c:	00478793          	addi	x15,x15,4
 170:	00078513          	addi	x10,x15,0
 174:	00000097          	auipc	x1,0x0
 178:	f3c080e7          	jalr	x1,-196(x1) # b0 <little_endian>
 17c:	fea42423          	sw	x10,-24(x8)
    state_2 = little_endian((uint8_t*)&plain_text[2]);
 180:	fb840793          	addi	x15,x8,-72
 184:	00878793          	addi	x15,x15,8
 188:	00078513          	addi	x10,x15,0
 18c:	00000097          	auipc	x1,0x0
 190:	f24080e7          	jalr	x1,-220(x1) # b0 <little_endian>
 194:	fea42223          	sw	x10,-28(x8)
    state_3 = little_endian((uint8_t*)&plain_text[3]);
 198:	fb840793          	addi	x15,x8,-72
 19c:	00c78793          	addi	x15,x15,12
 1a0:	00078513          	addi	x10,x15,0
 1a4:	00000097          	auipc	x1,0x0
 1a8:	f0c080e7          	jalr	x1,-244(x1) # b0 <little_endian>
 1ac:	fea42023          	sw	x10,-32(x8)

    // add round key
    state_0 ^= little_endian((uint8_t*)&round_key[round]);
 1b0:	fdc42783          	lw	x15,-36(x8)
 1b4:	00279713          	slli	x14,x15,0x2
 1b8:	000007b7          	lui	x15,0x0
 1bc:	6a078793          	addi	x15,x15,1696 # 6a0 <round_key>
 1c0:	00f707b3          	add	x15,x14,x15
 1c4:	00078513          	addi	x10,x15,0
 1c8:	00000097          	auipc	x1,0x0
 1cc:	ee8080e7          	jalr	x1,-280(x1) # b0 <little_endian>
 1d0:	00050713          	addi	x14,x10,0
 1d4:	fec42783          	lw	x15,-20(x8)
 1d8:	00e7c7b3          	xor	x15,x15,x14
 1dc:	fef42623          	sw	x15,-20(x8)
    state_1 ^= little_endian((uint8_t*)&round_key[round+1]);
 1e0:	fdc42783          	lw	x15,-36(x8)
 1e4:	00178793          	addi	x15,x15,1
 1e8:	00279713          	slli	x14,x15,0x2
 1ec:	000007b7          	lui	x15,0x0
 1f0:	6a078793          	addi	x15,x15,1696 # 6a0 <round_key>
 1f4:	00f707b3          	add	x15,x14,x15
 1f8:	00078513          	addi	x10,x15,0
 1fc:	00000097          	auipc	x1,0x0
 200:	eb4080e7          	jalr	x1,-332(x1) # b0 <little_endian>
 204:	00050713          	addi	x14,x10,0
 208:	fe842783          	lw	x15,-24(x8)
 20c:	00e7c7b3          	xor	x15,x15,x14
 210:	fef42423          	sw	x15,-24(x8)
    state_2 ^= little_endian((uint8_t*)&round_key[round+2]);
 214:	fdc42783          	lw	x15,-36(x8)
 218:	00278793          	addi	x15,x15,2
 21c:	00279713          	slli	x14,x15,0x2
 220:	000007b7          	lui	x15,0x0
 224:	6a078793          	addi	x15,x15,1696 # 6a0 <round_key>
 228:	00f707b3          	add	x15,x14,x15
 22c:	00078513          	addi	x10,x15,0
 230:	00000097          	auipc	x1,0x0
 234:	e80080e7          	jalr	x1,-384(x1) # b0 <little_endian>
 238:	00050713          	addi	x14,x10,0
 23c:	fe442783          	lw	x15,-28(x8)
 240:	00e7c7b3          	xor	x15,x15,x14
 244:	fef42223          	sw	x15,-28(x8)
    state_3 ^= little_endian((uint8_t*)&round_key[round+3]);
 248:	fdc42783          	lw	x15,-36(x8)
 24c:	00378793          	addi	x15,x15,3
 250:	00279713          	slli	x14,x15,0x2
 254:	000007b7          	lui	x15,0x0
 258:	6a078793          	addi	x15,x15,1696 # 6a0 <round_key>
 25c:	00f707b3          	add	x15,x14,x15
 260:	00078513          	addi	x10,x15,0
 264:	00000097          	auipc	x1,0x0
 268:	e4c080e7          	jalr	x1,-436(x1) # b0 <little_endian>
 26c:	00050713          	addi	x14,x10,0
 270:	fe042783          	lw	x15,-32(x8)
 274:	00e7c7b3          	xor	x15,x15,x14
 278:	fef42023          	sw	x15,-32(x8)

    round += 4;
 27c:	fdc42783          	lw	x15,-36(x8)
 280:	00478793          	addi	x15,x15,4
 284:	fcf42e23          	sw	x15,-36(x8)

    for(int _ = 0; _ < 9; _++) {
 288:	fc042c23          	sw	x0,-40(x8)
 28c:	1e80006f          	jal	x0,474 <main+0x35c>
        // load round key
        next_state_0 = little_endian((uint8_t*)&round_key[round]);
 290:	fdc42783          	lw	x15,-36(x8)
 294:	00279713          	slli	x14,x15,0x2
 298:	000007b7          	lui	x15,0x0
 29c:	6a078793          	addi	x15,x15,1696 # 6a0 <round_key>
 2a0:	00f707b3          	add	x15,x14,x15
 2a4:	00078513          	addi	x10,x15,0
 2a8:	00000097          	auipc	x1,0x0
 2ac:	e08080e7          	jalr	x1,-504(x1) # b0 <little_endian>
 2b0:	fca42a23          	sw	x10,-44(x8)
        next_state_1 = little_endian((uint8_t*)&round_key[round+1]);
 2b4:	fdc42783          	lw	x15,-36(x8)
 2b8:	00178793          	addi	x15,x15,1
 2bc:	00279713          	slli	x14,x15,0x2
 2c0:	000007b7          	lui	x15,0x0
 2c4:	6a078793          	addi	x15,x15,1696 # 6a0 <round_key>
 2c8:	00f707b3          	add	x15,x14,x15
 2cc:	00078513          	addi	x10,x15,0
 2d0:	00000097          	auipc	x1,0x0
 2d4:	de0080e7          	jalr	x1,-544(x1) # b0 <little_endian>
 2d8:	fca42823          	sw	x10,-48(x8)
        next_state_2 = little_endian((uint8_t*)&round_key[round+2]);
 2dc:	fdc42783          	lw	x15,-36(x8)
 2e0:	00278793          	addi	x15,x15,2
 2e4:	00279713          	slli	x14,x15,0x2
 2e8:	000007b7          	lui	x15,0x0
 2ec:	6a078793          	addi	x15,x15,1696 # 6a0 <round_key>
 2f0:	00f707b3          	add	x15,x14,x15
 2f4:	00078513          	addi	x10,x15,0
 2f8:	00000097          	auipc	x1,0x0
 2fc:	db8080e7          	jalr	x1,-584(x1) # b0 <little_endian>
 300:	fca42623          	sw	x10,-52(x8)
        next_state_3 = little_endian((uint8_t*)&round_key[round+3]);
 304:	fdc42783          	lw	x15,-36(x8)
 308:	00378793          	addi	x15,x15,3
 30c:	00279713          	slli	x14,x15,0x2
 310:	000007b7          	lui	x15,0x0
 314:	6a078793          	addi	x15,x15,1696 # 6a0 <round_key>
 318:	00f707b3          	add	x15,x14,x15
 31c:	00078513          	addi	x10,x15,0
 320:	00000097          	auipc	x1,0x0
 324:	d90080e7          	jalr	x1,-624(x1) # b0 <little_endian>
 328:	fca42423          	sw	x10,-56(x8)

        // round with mix column
        asm volatile("aes_enc_sbox %0, %1, %2\n": "=r"(next_state_0):"r"(next_state_0),"r"(0):);
 32c:	fd442783          	lw	x15,-44(x8)
 330:	00000713          	addi	x14,x0,0
 334:	00e7e7b7          	aes_enc_sbox	x15,x15,x14
 338:	fcf42a23          	sw	x15,-44(x8)

        asm volatile("aes_enc_round_mc_0 %0, %1, %2\n": "=r"(next_state_0):"r"(next_state_0),"r"(state_0):);
 33c:	fd442783          	lw	x15,-44(x8)
 340:	fec42703          	lw	x14,-20(x8)
 344:	00e7e7a7          	aes_enc_round_mc_0	x15,x15,x14
 348:	fcf42a23          	sw	x15,-44(x8)
        asm volatile("aes_enc_round_mc_1 %0, %1, %2\n": "=r"(next_state_0):"r"(next_state_0),"r"(state_1):);
 34c:	fd442783          	lw	x15,-44(x8)
 350:	fe842703          	lw	x14,-24(x8)
 354:	00e7e7a3          	aes_enc_round_mc_1	x15,x15,x14
 358:	fcf42a23          	sw	x15,-44(x8)
        asm volatile("aes_enc_round_mc_2 %0, %1, %2\n": "=r"(next_state_0):"r"(next_state_0),"r"(state_2):);
 35c:	fd442783          	lw	x15,-44(x8)
 360:	fe442703          	lw	x14,-28(x8)
 364:	00e7e7ab          	aes_enc_round_mc_2	x15,x15,x14
 368:	fcf42a23          	sw	x15,-44(x8)
        asm volatile("aes_enc_round_mc_3 %0, %1, %2\n": "=r"(next_state_0):"r"(next_state_0),"r"(state_3):);
 36c:	fd442783          	lw	x15,-44(x8)
 370:	fe042703          	lw	x14,-32(x8)
 374:	00e7e7af          	aes_enc_round_mc_3	x15,x15,x14
 378:	fcf42a23          	sw	x15,-44(x8)

        asm volatile("aes_enc_round_mc_0 %0, %1, %2\n": "=r"(next_state_1):"r"(next_state_1),"r"(state_1):);
 37c:	fd042783          	lw	x15,-48(x8)
 380:	fe842703          	lw	x14,-24(x8)
 384:	00e7e7a7          	aes_enc_round_mc_0	x15,x15,x14
 388:	fcf42823          	sw	x15,-48(x8)
        asm volatile("aes_enc_round_mc_1 %0, %1, %2\n": "=r"(next_state_1):"r"(next_state_1),"r"(state_2):);
 38c:	fd042783          	lw	x15,-48(x8)
 390:	fe442703          	lw	x14,-28(x8)
 394:	00e7e7a3          	aes_enc_round_mc_1	x15,x15,x14
 398:	fcf42823          	sw	x15,-48(x8)
        asm volatile("aes_enc_round_mc_2 %0, %1, %2\n": "=r"(next_state_1):"r"(next_state_1),"r"(state_3):);
 39c:	fd042783          	lw	x15,-48(x8)
 3a0:	fe042703          	lw	x14,-32(x8)
 3a4:	00e7e7ab          	aes_enc_round_mc_2	x15,x15,x14
 3a8:	fcf42823          	sw	x15,-48(x8)
        asm volatile("aes_enc_round_mc_3 %0, %1, %2\n": "=r"(next_state_1):"r"(next_state_1),"r"(state_0):);
 3ac:	fd042783          	lw	x15,-48(x8)
 3b0:	fec42703          	lw	x14,-20(x8)
 3b4:	00e7e7af          	aes_enc_round_mc_3	x15,x15,x14
 3b8:	fcf42823          	sw	x15,-48(x8)

        asm volatile("aes_enc_round_mc_0 %0, %1, %2\n": "=r"(next_state_2):"r"(next_state_2),"r"(state_2):);
 3bc:	fcc42783          	lw	x15,-52(x8)
 3c0:	fe442703          	lw	x14,-28(x8)
 3c4:	00e7e7a7          	aes_enc_round_mc_0	x15,x15,x14
 3c8:	fcf42623          	sw	x15,-52(x8)
        asm volatile("aes_enc_round_mc_1 %0, %1, %2\n": "=r"(next_state_2):"r"(next_state_2),"r"(state_3):);
 3cc:	fcc42783          	lw	x15,-52(x8)
 3d0:	fe042703          	lw	x14,-32(x8)
 3d4:	00e7e7a3          	aes_enc_round_mc_1	x15,x15,x14
 3d8:	fcf42623          	sw	x15,-52(x8)
        asm volatile("aes_enc_round_mc_2 %0, %1, %2\n": "=r"(next_state_2):"r"(next_state_2),"r"(state_0):);
 3dc:	fcc42783          	lw	x15,-52(x8)
 3e0:	fec42703          	lw	x14,-20(x8)
 3e4:	00e7e7ab          	aes_enc_round_mc_2	x15,x15,x14
 3e8:	fcf42623          	sw	x15,-52(x8)
        asm volatile("aes_enc_round_mc_3 %0, %1, %2\n": "=r"(next_state_2):"r"(next_state_2),"r"(state_1):);
 3ec:	fcc42783          	lw	x15,-52(x8)
 3f0:	fe842703          	lw	x14,-24(x8)
 3f4:	00e7e7af          	aes_enc_round_mc_3	x15,x15,x14
 3f8:	fcf42623          	sw	x15,-52(x8)

        asm volatile("aes_enc_round_mc_0 %0, %1, %2\n": "=r"(next_state_3):"r"(next_state_3),"r"(state_3):);
 3fc:	fc842783          	lw	x15,-56(x8)
 400:	fe042703          	lw	x14,-32(x8)
 404:	00e7e7a7          	aes_enc_round_mc_0	x15,x15,x14
 408:	fcf42423          	sw	x15,-56(x8)
        asm volatile("aes_enc_round_mc_1 %0, %1, %2\n": "=r"(next_state_3):"r"(next_state_3),"r"(state_0):);
 40c:	fc842783          	lw	x15,-56(x8)
 410:	fec42703          	lw	x14,-20(x8)
 414:	00e7e7a3          	aes_enc_round_mc_1	x15,x15,x14
 418:	fcf42423          	sw	x15,-56(x8)
        asm volatile("aes_enc_round_mc_2 %0, %1, %2\n": "=r"(next_state_3):"r"(next_state_3),"r"(state_1):);
 41c:	fc842783          	lw	x15,-56(x8)
 420:	fe842703          	lw	x14,-24(x8)
 424:	00e7e7ab          	aes_enc_round_mc_2	x15,x15,x14
 428:	fcf42423          	sw	x15,-56(x8)
        asm volatile("aes_enc_round_mc_3 %0, %1, %2\n": "=r"(next_state_3):"r"(next_state_3),"r"(state_2):);
 42c:	fc842783          	lw	x15,-56(x8)
 430:	fe442703          	lw	x14,-28(x8)
 434:	00e7e7af          	aes_enc_round_mc_3	x15,x15,x14
 438:	fcf42423          	sw	x15,-56(x8)

        state_0 = next_state_0;
 43c:	fd442783          	lw	x15,-44(x8)
 440:	fef42623          	sw	x15,-20(x8)
        state_1 = next_state_1;
 444:	fd042783          	lw	x15,-48(x8)
 448:	fef42423          	sw	x15,-24(x8)
        state_2 = next_state_2;
 44c:	fcc42783          	lw	x15,-52(x8)
 450:	fef42223          	sw	x15,-28(x8)
        state_3 = next_state_3;
 454:	fc842783          	lw	x15,-56(x8)
 458:	fef42023          	sw	x15,-32(x8)

        round += 4;  
 45c:	fdc42783          	lw	x15,-36(x8)
 460:	00478793          	addi	x15,x15,4 # e7e004 <_sp+0xe6e004>
 464:	fcf42e23          	sw	x15,-36(x8)
    for(int _ = 0; _ < 9; _++) {
 468:	fd842783          	lw	x15,-40(x8)
 46c:	00178793          	addi	x15,x15,1
 470:	fcf42c23          	sw	x15,-40(x8)
 474:	fd842703          	lw	x14,-40(x8)
 478:	00800793          	addi	x15,x0,8
 47c:	e0e7dae3          	bge	x15,x14,290 <main+0x178>
    }

    next_state_0 = little_endian((uint8_t*)&round_key[round]);
 480:	fdc42783          	lw	x15,-36(x8)
 484:	00279713          	slli	x14,x15,0x2
 488:	000007b7          	lui	x15,0x0
 48c:	6a078793          	addi	x15,x15,1696 # 6a0 <round_key>
 490:	00f707b3          	add	x15,x14,x15
 494:	00078513          	addi	x10,x15,0
 498:	00000097          	auipc	x1,0x0
 49c:	c18080e7          	jalr	x1,-1000(x1) # b0 <little_endian>
 4a0:	fca42a23          	sw	x10,-44(x8)
    next_state_1 = little_endian((uint8_t*)&round_key[round+1]);
 4a4:	fdc42783          	lw	x15,-36(x8)
 4a8:	00178793          	addi	x15,x15,1
 4ac:	00279713          	slli	x14,x15,0x2
 4b0:	000007b7          	lui	x15,0x0
 4b4:	6a078793          	addi	x15,x15,1696 # 6a0 <round_key>
 4b8:	00f707b3          	add	x15,x14,x15
 4bc:	00078513          	addi	x10,x15,0
 4c0:	00000097          	auipc	x1,0x0
 4c4:	bf0080e7          	jalr	x1,-1040(x1) # b0 <little_endian>
 4c8:	fca42823          	sw	x10,-48(x8)
    next_state_2 = little_endian((uint8_t*)&round_key[round+2]);
 4cc:	fdc42783          	lw	x15,-36(x8)
 4d0:	00278793          	addi	x15,x15,2
 4d4:	00279713          	slli	x14,x15,0x2
 4d8:	000007b7          	lui	x15,0x0
 4dc:	6a078793          	addi	x15,x15,1696 # 6a0 <round_key>
 4e0:	00f707b3          	add	x15,x14,x15
 4e4:	00078513          	addi	x10,x15,0
 4e8:	00000097          	auipc	x1,0x0
 4ec:	bc8080e7          	jalr	x1,-1080(x1) # b0 <little_endian>
 4f0:	fca42623          	sw	x10,-52(x8)
    next_state_3 = little_endian((uint8_t*)&round_key[round+3]);
 4f4:	fdc42783          	lw	x15,-36(x8)
 4f8:	00378793          	addi	x15,x15,3
 4fc:	00279713          	slli	x14,x15,0x2
 500:	000007b7          	lui	x15,0x0
 504:	6a078793          	addi	x15,x15,1696 # 6a0 <round_key>
 508:	00f707b3          	add	x15,x14,x15
 50c:	00078513          	addi	x10,x15,0
 510:	00000097          	auipc	x1,0x0
 514:	ba0080e7          	jalr	x1,-1120(x1) # b0 <little_endian>
 518:	fca42423          	sw	x10,-56(x8)

    asm volatile("aes_enc_round_0 %0, %1, %2\n": "=r"(next_state_0):"r"(next_state_0),"r"(state_0):);
 51c:	fd442783          	lw	x15,-44(x8)
 520:	fec42703          	lw	x14,-20(x8)
 524:	00e7e787          	aes_enc_round_0	x15,x15,x14
 528:	fcf42a23          	sw	x15,-44(x8)
    asm volatile("aes_enc_round_1 %0, %1, %2\n": "=r"(next_state_0):"r"(next_state_0),"r"(state_1):);
 52c:	fd442783          	lw	x15,-44(x8)
 530:	fe842703          	lw	x14,-24(x8)
 534:	00e7e783          	aes_enc_round_1	x15,x15,x14
 538:	fcf42a23          	sw	x15,-44(x8)
    asm volatile("aes_enc_round_2 %0, %1, %2\n": "=r"(next_state_0):"r"(next_state_0),"r"(state_2):);
 53c:	fd442783          	lw	x15,-44(x8)
 540:	fe442703          	lw	x14,-28(x8)
 544:	00e7e78b          	aes_enc_round_2	x15,x15,x14
 548:	fcf42a23          	sw	x15,-44(x8)
    asm volatile("aes_enc_round_3 %0, %1, %2\n": "=r"(next_state_0):"r"(next_state_0),"r"(state_3):);
 54c:	fd442783          	lw	x15,-44(x8)
 550:	fe042703          	lw	x14,-32(x8)
 554:	00e7e78f          	aes_enc_round_3	x15,x15,x14
 558:	fcf42a23          	sw	x15,-44(x8)

    asm volatile("aes_enc_round_0 %0, %1, %2\n": "=r"(next_state_1):"r"(next_state_1),"r"(state_1):);
 55c:	fd042783          	lw	x15,-48(x8)
 560:	fe842703          	lw	x14,-24(x8)
 564:	00e7e787          	aes_enc_round_0	x15,x15,x14
 568:	fcf42823          	sw	x15,-48(x8)
    asm volatile("aes_enc_round_1 %0, %1, %2\n": "=r"(next_state_1):"r"(next_state_1),"r"(state_2):);
 56c:	fd042783          	lw	x15,-48(x8)
 570:	fe442703          	lw	x14,-28(x8)
 574:	00e7e783          	aes_enc_round_1	x15,x15,x14
 578:	fcf42823          	sw	x15,-48(x8)
    asm volatile("aes_enc_round_2 %0, %1, %2\n": "=r"(next_state_1):"r"(next_state_1),"r"(state_3):);
 57c:	fd042783          	lw	x15,-48(x8)
 580:	fe042703          	lw	x14,-32(x8)
 584:	00e7e78b          	aes_enc_round_2	x15,x15,x14
 588:	fcf42823          	sw	x15,-48(x8)
    asm volatile("aes_enc_round_3 %0, %1, %2\n": "=r"(next_state_1):"r"(next_state_1),"r"(state_0):);
 58c:	fd042783          	lw	x15,-48(x8)
 590:	fec42703          	lw	x14,-20(x8)
 594:	00e7e78f          	aes_enc_round_3	x15,x15,x14
 598:	fcf42823          	sw	x15,-48(x8)

    asm volatile("aes_enc_round_0 %0, %1, %2\n": "=r"(next_state_2):"r"(next_state_2),"r"(state_2):);
 59c:	fcc42783          	lw	x15,-52(x8)
 5a0:	fe442703          	lw	x14,-28(x8)
 5a4:	00e7e787          	aes_enc_round_0	x15,x15,x14
 5a8:	fcf42623          	sw	x15,-52(x8)
    asm volatile("aes_enc_round_1 %0, %1, %2\n": "=r"(next_state_2):"r"(next_state_2),"r"(state_3):);
 5ac:	fcc42783          	lw	x15,-52(x8)
 5b0:	fe042703          	lw	x14,-32(x8)
 5b4:	00e7e783          	aes_enc_round_1	x15,x15,x14
 5b8:	fcf42623          	sw	x15,-52(x8)
    asm volatile("aes_enc_round_2 %0, %1, %2\n": "=r"(next_state_2):"r"(next_state_2),"r"(state_0):);
 5bc:	fcc42783          	lw	x15,-52(x8)
 5c0:	fec42703          	lw	x14,-20(x8)
 5c4:	00e7e78b          	aes_enc_round_2	x15,x15,x14
 5c8:	fcf42623          	sw	x15,-52(x8)
    asm volatile("aes_enc_round_3 %0, %1, %2\n": "=r"(next_state_2):"r"(next_state_2),"r"(state_1):);
 5cc:	fcc42783          	lw	x15,-52(x8)
 5d0:	fe842703          	lw	x14,-24(x8)
 5d4:	00e7e78f          	aes_enc_round_3	x15,x15,x14
 5d8:	fcf42623          	sw	x15,-52(x8)

    asm volatile("aes_enc_round_0 %0, %1, %2\n": "=r"(next_state_3):"r"(next_state_3),"r"(state_3):);
 5dc:	fc842783          	lw	x15,-56(x8)
 5e0:	fe042703          	lw	x14,-32(x8)
 5e4:	00e7e787          	aes_enc_round_0	x15,x15,x14
 5e8:	fcf42423          	sw	x15,-56(x8)
    asm volatile("aes_enc_round_1 %0, %1, %2\n": "=r"(next_state_3):"r"(next_state_3),"r"(state_0):);
 5ec:	fc842783          	lw	x15,-56(x8)
 5f0:	fec42703          	lw	x14,-20(x8)
 5f4:	00e7e783          	aes_enc_round_1	x15,x15,x14
 5f8:	fcf42423          	sw	x15,-56(x8)
    asm volatile("aes_enc_round_2 %0, %1, %2\n": "=r"(next_state_3):"r"(next_state_3),"r"(state_1):);
 5fc:	fc842783          	lw	x15,-56(x8)
 600:	fe842703          	lw	x14,-24(x8)
 604:	00e7e78b          	aes_enc_round_2	x15,x15,x14
 608:	fcf42423          	sw	x15,-56(x8)
    asm volatile("aes_enc_round_3 %0, %1, %2\n": "=r"(next_state_3):"r"(next_state_3),"r"(state_2):);
 60c:	fc842783          	lw	x15,-56(x8)
 610:	fe442703          	lw	x14,-28(x8)
 614:	00e7e78f          	aes_enc_round_3	x15,x15,x14
 618:	fcf42423          	sw	x15,-56(x8)

    cipher_text[0] = next_state_0;
 61c:	fd442783          	lw	x15,-44(x8)
 620:	faf42423          	sw	x15,-88(x8)
    cipher_text[1] = next_state_1;
 624:	fd042783          	lw	x15,-48(x8)
 628:	faf42623          	sw	x15,-84(x8)
    cipher_text[2] = next_state_2;
 62c:	fcc42783          	lw	x15,-52(x8)
 630:	faf42823          	sw	x15,-80(x8)
    cipher_text[3] = next_state_3;
 634:	fc842783          	lw	x15,-56(x8)
 638:	faf42a23          	sw	x15,-76(x8)

    return 0;
 63c:	00000793          	addi	x15,x0,0
 640:	00078513          	addi	x10,x15,0
 644:	05c12083          	lw	x1,92(x2)
 648:	05812403          	lw	x8,88(x2)
 64c:	06010113          	addi	x2,x2,96
 650:	00008067          	jalr	x0,0(x1)
	...

Disassembly of section .rodata:

000006a0 <round_key>:
	...
 6b0:	62636363          	bltu	x6,x6,cd6 <_ebss+0x576>
 6b4:	62636363          	bltu	x6,x6,cda <_ebss+0x57a>
 6b8:	62636363          	bltu	x6,x6,cde <_ebss+0x57e>
 6bc:	62636363          	bltu	x6,x6,ce2 <_ebss+0x582>
 6c0:	98c9                	.2byte	0x98c9
 6c2:	9b98                	.2byte	0x9b98
 6c4:	fbaa                	.2byte	0xfbaa
 6c6:	98c9f9fb          	.4byte	0x98c9f9fb
 6ca:	9b98                	.2byte	0x9b98
 6cc:	fbaa                	.2byte	0xfbaa
 6ce:	3450f9fb          	.4byte	0x3450f9fb
 6d2:	cffa9097          	auipc	x1,0xcffa9
 6d6:	696c                	.2byte	0x696c
 6d8:	f2f45733          	.4byte	0xf2f45733
 6dc:	ac99                	.2byte	0xac99
 6de:	da7b0b0f          	.4byte	0xda7b0b0f
 6e2:	ee06                	.2byte	0xee06
 6e4:	1581                	.2byte	0x1581
 6e6:	876a                	.2byte	0x876a
 6e8:	42b2                	.2byte	0x42b2
 6ea:	759e                	.2byte	0x759e
 6ec:	7e91ee2b          	.4byte	0x7e91ee2b
 6f0:	2b88                	.2byte	0x2b88
 6f2:	7f2e                	.2byte	0x7f2e
 6f4:	3e09                	.2byte	0x3e09
 6f6:	f844                	.2byte	0xf844
 6f8:	8dda7cbb          	.4byte	0x8dda7cbb
 6fc:	9290                	.2byte	0x9290
 6fe:	4b85f34b          	.4byte	0x4b85f34b
 702:	ec61                	.2byte	0xec61
 704:	758c                	.2byte	0x758c
 706:	1425                	.2byte	0x1425
 708:	99ff0937          	lui	x18,0x99ff0
 70c:	6ab49ba7          	.4byte	0x6ab49ba7
 710:	21751787          	.4byte	0x21751787
 714:	3550620b          	.4byte	0x3550620b
 718:	6b3c                	.2byte	0x6b3c
 71a:	f09bacaf          	.4byte	0xf09bacaf
 71e:	0333c61b          	.4byte	0x333c61b
 722:	0ef9                	.2byte	0xef9
 724:	6138                	.2byte	0x6138
 726:	3ba9                	.2byte	0x3ba9
 728:	0a04                	.2byte	0xa04
 72a:	9706                	.2byte	0x9706
 72c:	fa9f 511d d8e2      	.byte	0x9f, 0xfa, 0x1d, 0x51, 0xe2, 0xd8
 732:	b1d4                	.2byte	0xb1d4
 734:	b9da                	.2byte	0xb9da
 736:	8a7d                	.2byte	0x8a7d
 738:	b3de                	.2byte	0xb3de
 73a:	49411d7b          	.4byte	0x49411d7b
 73e:	4c66                	.2byte	0x4c66
 740:	b4ef5bcb          	.4byte	0xb4ef5bcb
 744:	e211                	.2byte	0xe211
 746:	3e92                	.2byte	0x3e92
 748:	23e951cf          	.4byte	0x23e951cf
 74c:	188e                	.2byte	0x188e
 74e:	32106f8f          	.4byte	0x32106f8f
 752:	7654                	.2byte	0x7654
 754:	3210                	.2byte	0x3210
 756:	7654                	.2byte	0x7654
 758:	3210                	.2byte	0x3210
 75a:	7654                	.2byte	0x7654
 75c:	3210                	.2byte	0x3210
 75e:	7654                	.2byte	0x7654

